{
  "contractName": "PatientManagement",
  "abi": [
    {
      "anonymous": false,
      "inputs": [
        {
          "indexed": true,
          "internalType": "uint256",
          "name": "id",
          "type": "uint256"
        },
        {
          "indexed": false,
          "internalType": "string",
          "name": "name",
          "type": "string"
        },
        {
          "indexed": false,
          "internalType": "uint256",
          "name": "age",
          "type": "uint256"
        },
        {
          "indexed": false,
          "internalType": "string",
          "name": "gender",
          "type": "string"
        },
        {
          "indexed": false,
          "internalType": "string",
          "name": "vaccine_status",
          "type": "string"
        },
        {
          "indexed": false,
          "internalType": "string",
          "name": "district",
          "type": "string"
        },
        {
          "indexed": false,
          "internalType": "string",
          "name": "symptoms_details",
          "type": "string"
        },
        {
          "indexed": false,
          "internalType": "bool",
          "name": "is_dead",
          "type": "bool"
        }
      ],
      "name": "PatientAdded",
      "type": "event"
    },
    {
      "anonymous": false,
      "inputs": [
        {
          "indexed": true,
          "internalType": "uint256",
          "name": "id",
          "type": "uint256"
        },
        {
          "indexed": false,
          "internalType": "string",
          "name": "name",
          "type": "string"
        },
        {
          "indexed": false,
          "internalType": "string",
          "name": "district",
          "type": "string"
        },
        {
          "indexed": false,
          "internalType": "bool",
          "name": "is_dead",
          "type": "bool"
        }
      ],
      "name": "PatientAddedWithDeath",
      "type": "event"
    },
    {
      "anonymous": false,
      "inputs": [
        {
          "indexed": true,
          "internalType": "uint256",
          "name": "_candidateId",
          "type": "uint256"
        }
      ],
      "name": "votedEvent",
      "type": "event"
    },
    {
      "inputs": [
        {
          "internalType": "address",
          "name": "",
          "type": "address"
        }
      ],
      "name": "admins",
      "outputs": [
        {
          "internalType": "bool",
          "name": "",
          "type": "bool"
        }
      ],
      "stateMutability": "view",
      "type": "function",
      "constant": true
    },
    {
      "inputs": [
        {
          "internalType": "string",
          "name": "",
          "type": "string"
        }
      ],
      "name": "districtDeathCounts",
      "outputs": [
        {
          "internalType": "uint256",
          "name": "",
          "type": "uint256"
        }
      ],
      "stateMutability": "view",
      "type": "function",
      "constant": true
    },
    {
      "inputs": [
        {
          "internalType": "string",
          "name": "",
          "type": "string"
        }
      ],
      "name": "districtStats",
      "outputs": [
        {
          "internalType": "uint256",
          "name": "totalPatients",
          "type": "uint256"
        },
        {
          "internalType": "uint256",
          "name": "totalDeaths",
          "type": "uint256"
        },
        {
          "internalType": "uint256",
          "name": "totalAge",
          "type": "uint256"
        },
        {
          "internalType": "uint256",
          "name": "childCount",
          "type": "uint256"
        },
        {
          "internalType": "uint256",
          "name": "teenCount",
          "type": "uint256"
        },
        {
          "internalType": "uint256",
          "name": "youthCount",
          "type": "uint256"
        },
        {
          "internalType": "uint256",
          "name": "elderCount",
          "type": "uint256"
        },
        {
          "internalType": "uint256",
          "name": "childPercent",
          "type": "uint256"
        },
        {
          "internalType": "uint256",
          "name": "teenPercent",
          "type": "uint256"
        },
        {
          "internalType": "uint256",
          "name": "youthPercent",
          "type": "uint256"
        },
        {
          "internalType": "uint256",
          "name": "elderPercent",
          "type": "uint256"
        }
      ],
      "stateMutability": "view",
      "type": "function",
      "constant": true
    },
    {
      "inputs": [
        {
          "internalType": "uint256",
          "name": "",
          "type": "uint256"
        }
      ],
      "name": "districts",
      "outputs": [
        {
          "internalType": "string",
          "name": "",
          "type": "string"
        }
      ],
      "stateMutability": "view",
      "type": "function",
      "constant": true
    },
    {
      "inputs": [
        {
          "internalType": "uint256",
          "name": "",
          "type": "uint256"
        }
      ],
      "name": "patients",
      "outputs": [
        {
          "internalType": "uint256",
          "name": "id",
          "type": "uint256"
        },
        {
          "internalType": "string",
          "name": "name",
          "type": "string"
        },
        {
          "internalType": "uint256",
          "name": "age",
          "type": "uint256"
        },
        {
          "internalType": "string",
          "name": "gender",
          "type": "string"
        },
        {
          "internalType": "string",
          "name": "vaccine_status",
          "type": "string"
        },
        {
          "internalType": "string",
          "name": "district",
          "type": "string"
        },
        {
          "internalType": "string",
          "name": "symptoms_details",
          "type": "string"
        },
        {
          "internalType": "bool",
          "name": "is_dead",
          "type": "bool"
        },
        {
          "internalType": "bool",
          "name": "isDoubleDosed",
          "type": "bool"
        }
      ],
      "stateMutability": "view",
      "type": "function",
      "constant": true
    },
    {
      "inputs": [],
      "name": "patientsCount",
      "outputs": [
        {
          "internalType": "uint256",
          "name": "",
          "type": "uint256"
        }
      ],
      "stateMutability": "view",
      "type": "function",
      "constant": true
    },
    {
      "inputs": [
        {
          "internalType": "string",
          "name": "_name",
          "type": "string"
        },
        {
          "internalType": "uint256",
          "name": "_age",
          "type": "uint256"
        },
        {
          "internalType": "string",
          "name": "_gender",
          "type": "string"
        },
        {
          "internalType": "string",
          "name": "_vaccine_status",
          "type": "string"
        },
        {
          "internalType": "string",
          "name": "_district",
          "type": "string"
        },
        {
          "internalType": "string",
          "name": "_symptoms_details",
          "type": "string"
        },
        {
          "internalType": "bool",
          "name": "_is_dead",
          "type": "bool"
        }
      ],
      "name": "addPatient",
      "outputs": [],
      "stateMutability": "nonpayable",
      "type": "function"
    },
    {
      "inputs": [
        {
          "internalType": "uint256",
          "name": "_candidateId",
          "type": "uint256"
        }
      ],
      "name": "makeAdmin",
      "outputs": [],
      "stateMutability": "nonpayable",
      "type": "function"
    },
    {
      "inputs": [
        {
          "internalType": "uint256",
          "name": "_id",
          "type": "uint256"
        },
        {
          "internalType": "string",
          "name": "_vaccine_status",
          "type": "string"
        }
      ],
      "name": "updateVaccine",
      "outputs": [],
      "stateMutability": "nonpayable",
      "type": "function"
    },
    {
      "inputs": [],
      "name": "getDistrictDeathCounts",
      "outputs": [
        {
          "internalType": "string[]",
          "name": "",
          "type": "string[]"
        },
        {
          "internalType": "uint256[]",
          "name": "",
          "type": "uint256[]"
        }
      ],
      "stateMutability": "view",
      "type": "function",
      "constant": true
    },
    {
      "inputs": [
        {
          "internalType": "uint256",
          "name": "_id",
          "type": "uint256"
        },
        {
          "internalType": "bool",
          "name": "_is_dead",
          "type": "bool"
        }
      ],
      "name": "updateDeath",
      "outputs": [],
      "stateMutability": "nonpayable",
      "type": "function"
    },
    {
      "inputs": [],
      "name": "getCovidTrend",
      "outputs": [
        {
          "internalType": "uint256",
          "name": "",
          "type": "uint256"
        },
        {
          "internalType": "string",
          "name": "",
          "type": "string"
        },
        {
          "internalType": "uint256",
          "name": "",
          "type": "uint256"
        },
        {
          "internalType": "uint256",
          "name": "",
          "type": "uint256"
        },
        {
          "internalType": "uint256",
          "name": "",
          "type": "uint256"
        },
        {
          "internalType": "uint256",
          "name": "",
          "type": "uint256"
        },
        {
          "internalType": "uint256",
          "name": "",
          "type": "uint256"
        }
      ],
      "stateMutability": "view",
      "type": "function",
      "constant": true
    }
  ],
  "bytecode": "0x6080604052600060025534801561001557600080fd5b50612c13806100256000396000f3fe608060405234801561001057600080fd5b50600436106100b45760003560e01c8063b4536e5d11610071578063b4536e5d146101c3578063b6b1289d146101df578063bfa17833146101fd578063c1aa4de714610219578063d41fe5fa14610238578063e77995e01461025c576100b4565b806328e9a210146100b957806340e9009c146100e9578063429b62e51461010557806393119a8314610135578063a7da4f7a1461016d578063af21961814610189575b600080fd5b6100d360048036038101906100ce9190611bb9565b61028c565b6040516100e09190611c1b565b60405180910390f35b61010360048036038101906100fe9190611c62565b6102ba565b005b61011f600480360381019061011a9190611ced565b610397565b60405161012c9190611d35565b60405180910390f35b61014f600480360381019061014a9190611c62565b6103b7565b60405161016499989796959493929190611dcf565b60405180910390f35b61018760048036038101906101829190611eab565b6106c7565b005b6101a3600480360381019061019e9190611bb9565b6108f7565b6040516101ba9b9a99989796959493929190611fd9565b60405180910390f35b6101dd60048036038101906101d89190612084565b610967565b005b6101e7610c01565b6040516101f49190611c1b565b60405180910390f35b610217600480360381019061021291906120c4565b610c07565b005b610221610d75565b60405161022f9291906122ea565b60405180910390f35b610240611069565b6040516102539796959493929190612321565b60405180910390f35b61027660048036038101906102719190611c62565b6112f6565b6040516102839190612397565b60405180910390f35b6004818051602081018201805184825260208301602085012081835280955050505050506000915090505481565b6000803373ffffffffffffffffffffffffffffffffffffffff1673ffffffffffffffffffffffffffffffffffffffff16815260200190815260200160002060009054906101000a900460ff161561031057600080fd5b807ffff3c900d938d21d0990d786e819f29b8d05c1ef587b462b939609625b684b1660405160405180910390a260016000803373ffffffffffffffffffffffffffffffffffffffff1673ffffffffffffffffffffffffffffffffffffffff16815260200190815260200160002060006101000a81548160ff02191690831515021790555050565b60006020528060005260406000206000915054906101000a900460ff1681565b60016020528060005260406000206000915090508060000154908060010180546103e0906123e8565b80601f016020809104026020016040519081016040528092919081815260200182805461040c906123e8565b80156104595780601f1061042e57610100808354040283529160200191610459565b820191906000526020600020905b81548152906001019060200180831161043c57829003601f168201915b505050505090806002015490806003018054610474906123e8565b80601f01602080910402602001604051908101604052809291908181526020018280546104a0906123e8565b80156104ed5780601f106104c2576101008083540402835291602001916104ed565b820191906000526020600020905b8154815290600101906020018083116104d057829003601f168201915b505050505090806004018054610502906123e8565b80601f016020809104026020016040519081016040528092919081815260200182805461052e906123e8565b801561057b5780601f106105505761010080835404028352916020019161057b565b820191906000526020600020905b81548152906001019060200180831161055e57829003601f168201915b505050505090806005018054610590906123e8565b80601f01602080910402602001604051908101604052809291908181526020018280546105bc906123e8565b80156106095780601f106105de57610100808354040283529160200191610609565b820191906000526020600020905b8154815290600101906020018083116105ec57829003601f168201915b50505050509080600601805461061e906123e8565b80601f016020809104026020016040519081016040528092919081815260200182805461064a906123e8565b80156106975780601f1061066c57610100808354040283529160200191610697565b820191906000526020600020905b81548152906001019060200180831161067a57829003601f168201915b5050505050908060070160009054906101000a900460ff16908060070160019054906101000a900460ff16905089565b600260008154809291906106da90612448565b91905055506000610720856040518060400160405280600881526020017f74776f5f646f73650000000000000000000000000000000000000000000000008152506113a2565b90506040518061012001604052806002548152602001898152602001888152602001878152602001868152602001858152602001848152602001831515815260200182151581525060016000600254815260200190815260200160002060008201518160000155602082015181600101908161079c919061263c565b506040820151816002015560608201518160030190816107bc919061263c565b5060808201518160040190816107d2919061263c565b5060a08201518160050190816107e8919061263c565b5060c08201518160060190816107fe919061263c565b5060e08201518160070160006101000a81548160ff0219169083151502179055506101008201518160070160016101000a81548160ff02191690831515021790555090505081156108545761085384836113fb565b5b610864600254888685600161143a565b61086d84611769565b6108a7576005849080600181540180825580915050600190039060005260206000200160009091909190915090816108a5919061263c565b505b6002547f14114d2ffb1c6b656f341bcbed3f8a6dc98be98c71e1c7bf30fe9324af0b97a5898989898989896040516108e5979695949392919061270e565b60405180910390a25050505050505050565b60038180516020810182018051848252602083016020850120818352809550505050505060009150905080600001549080600101549080600201549080600301549080600401549080600501549080600601549080600701549080600801549080600901549080600a015490508b565b600115156000803373ffffffffffffffffffffffffffffffffffffffff1673ffffffffffffffffffffffffffffffffffffffff16815260200190815260200160002060009054906101000a900460ff161515146109f9576040517f08c379a00000000000000000000000000000000000000000000000000000000081526004016109f0906127ec565b60405180910390fd5b60006001600084815260200190815260200160002060070160009054906101000a900460ff169050816001600085815260200190815260200160002060070160006101000a81548160ff0219169083151502179055506000600160008581526020019081526020016000206005018054610a72906123e8565b80601f0160208091040260200160405190810160405280929190818152602001828054610a9e906123e8565b8015610aeb5780601f10610ac057610100808354040283529160200191610aeb565b820191906000526020600020905b815481529060010190602001808311610ace57829003601f168201915b5050505050905082151582151514610bfb578215610b3857600481604051610b139190612848565b90815260200160405180910390206000815480929190610b3290612448565b91905055505b610bfa846001600087815260200190815260200160002060020154600160008881526020019081526020016000206005018054610b74906123e8565b80601f0160208091040260200160405190810160405280929190818152602001828054610ba0906123e8565b8015610bed5780601f10610bc257610100808354040283529160200191610bed565b820191906000526020600020905b815481529060010190602001808311610bd057829003601f168201915b505050505086871561143a565b5b50505050565b60025481565b600115156000803373ffffffffffffffffffffffffffffffffffffffff1673ffffffffffffffffffffffffffffffffffffffff16815260200190815260200160002060009054906101000a900460ff16151514610c99576040517f08c379a0000000000000000000000000000000000000000000000000000000008152600401610c90906127ec565b60405180910390fd5b80600160008481526020019081526020016000206004019081610cbc919061263c565b50604051602001610ccc906128ab565b6040516020818303038152906040528051906020012081604051602001610cf39190612848565b6040516020818303038152906040528051906020012003610d4157600180600084815260200190815260200160002060070160016101000a81548160ff021916908315150217905550610d71565b60006001600084815260200190815260200160002060070160016101000a81548160ff0219169083151502179055505b5050565b6060806000600580549050905060008167ffffffffffffffff811115610d9e57610d9d611a8e565b5b604051908082528060200260200182016040528015610dcc5781602001602082028036833780820191505090505b50905060008267ffffffffffffffff811115610deb57610dea611a8e565b5b604051908082528060200260200182016040528015610e1e57816020015b6060815260200190600190039081610e095790505b50905060008060005b85811015610f7c57600060058281548110610e4557610e446128c0565b5b906000526020600020018054610e5a906123e8565b80601f0160208091040260200160405190810160405280929190818152602001828054610e86906123e8565b8015610ed35780601f10610ea857610100808354040283529160200191610ed3565b820191906000526020600020905b815481529060010190602001808311610eb657829003601f168201915b505050505090506000600482604051610eec9190612848565b908152602001604051809103902054905080878481518110610f1157610f106128c0565b5b60200260200101818152505081868481518110610f3157610f306128c0565b5b602002602001018190525084811115610f505780945060019350610f67565b848103610f66578380610f6290612448565b9450505b5b50508080610f7490612448565b915050610e27565b5060008167ffffffffffffffff811115610f9957610f98611a8e565b5b604051908082528060200260200182016040528015610fcc57816020015b6060815260200190600190039081610fb75790505b5090506000805b878110156110575784878281518110610fef57610fee6128c0565b5b6020026020010151036110445785818151811061100f5761100e6128c0565b5b602002602001015183838151811061102a576110296128c0565b5b6020026020010181905250818061104090612448565b9250505b808061104f90612448565b915050610fd3565b50818698509850505050505050509091565b60006060600080600080600080600080600080600060606000600190505b60025481116110db576001600082815260200190815260200160002060070160009054906101000a900460ff16156110c85787806110c490612448565b9850505b80806110d390612448565b915050611087565b506000805b6005805490508110156111f6576000600460058381548110611105576111046128c0565b5b9060005260206000200160405161111c9190612972565b9081526020016040518091039020549050828111156111e2578092506005828154811061114c5761114b6128c0565b5b906000526020600020018054611161906123e8565b80601f016020809104026020016040519081016040528092919081815260200182805461118d906123e8565b80156111da5780601f106111af576101008083540402835291602001916111da565b820191906000526020600020905b8154815290600101906020018083116111bd57829003601f168201915b505050505093505b5080806111ee90612448565b9150506110e0565b50600060025467ffffffffffffffff81111561121557611214611a8e565b5b6040519080825280602002602001820160405280156112435781602001602082028036833780820191505090505b5090506000600190505b60025481116112ab5760016000828152602001908152602001600020600201548260018361127b9190612989565b8151811061128c5761128b6128c0565b5b60200260200101818152505080806112a390612448565b91505061124d565b506112b581611816565b97506112bf61191c565b809750819850829950839a5050505050888389898989899f509f509f509f509f509f509f5050505050505050505090919293949596565b6005818154811061130657600080fd5b906000526020600020016000915090508054611321906123e8565b80601f016020809104026020016040519081016040528092919081815260200182805461134d906123e8565b801561139a5780601f1061136f5761010080835404028352916020019161139a565b820191906000526020600020905b81548152906001019060200180831161137d57829003601f168201915b505050505081565b6000816040516020016113b59190612848565b60405160208183030381529060405280519060200120836040516020016113dc9190612848565b6040516020818303038152906040528051906020012014905092915050565b8015611436576004826040516114119190612848565b9081526020016040518091039020600081548092919061143090612448565b91905055505b5050565b600060038460405161144c9190612848565b9081526020016040518091039020600001540361154d576040518061016001604052806000815260200160008152602001600081526020016000815260200160008152602001600081526020016000815260200160008152602001600081526020016000815260200160008152506003846040516114ca9190612848565b9081526020016040518091039020600082015181600001556020820151816001015560408201518160020155606082015181600301556080820151816004015560a0820151816005015560c0820151816006015560e082015181600701556101008201518160080155610120820151816009015561014082015181600a01559050505b600060038460405161155f9190612848565b9081526020016040518091039020905081156115945780600001600081548092919061158a90612448565b91905055506115f6565b60008160000154116115db576040517f08c379a00000000000000000000000000000000000000000000000000000000081526004016115d290612a09565b60405180910390fd5b8060000160008154809291906115f090612a29565b91905055505b8481600201600082825461160a9190612a52565b9250508190555082156116325780600101600081548092919061162c90612448565b91905055505b600d85101561165a5780600301600081548092919061165090612448565b91905055506116c7565b60148510156116825780600401600081548092919061167890612448565b91905055506116c6565b60328510156116aa578060050160008154809291906116a090612448565b91905055506116c5565b8060060160008154809291906116bf90612448565b91905055505b5b5b60008160000154905080606483600301546116e29190612a86565b6116ec9190612b0f565b826007018190555080606483600401546117069190612a86565b6117109190612b0f565b8260080181905550806064836005015461172a9190612a86565b6117349190612b0f565b8260090181905550806064836006015461174e9190612a86565b6117589190612b0f565b82600a018190555050505050505050565b600080600090505b60058054905081101561180b578260405160200161178f9190612848565b60405160208183030381529060405280519060200120600582815481106117b9576117b86128c0565b5b906000526020600020016040516020016117d39190612972565b60405160208183030381529060405280519060200120036117f8576001915050611811565b808061180390612448565b915050611771565b50600090505b919050565b6000808251905060008111611860576040517f08c379a000000000000000000000000000000000000000000000000000000000815260040161185790612b8c565b60405180910390fd5b600060028261186f9190612bac565b036118ec576002836002836118849190612b0f565b81518110611895576118946128c0565b5b60200260200101518460016002856118ad9190612b0f565b6118b79190612989565b815181106118c8576118c76128c0565b5b60200260200101516118da9190612a52565b6118e49190612b0f565b915050611917565b826002826118fa9190612b0f565b8151811061190b5761190a6128c0565b5b60200260200101519150505b919050565b6000806000806000806000806000600190505b60025481116119cc57600060016000838152602001908152602001600020600201549050600d81101561196f57858061196790612448565b9650506119b8565b601481101561198b57848061198390612448565b9550506119b7565b60328110156119a757838061199f90612448565b9450506119b6565b82806119b290612448565b9350505b5b5b5080806119c490612448565b91505061192f565b50600060025490506000816064876119e49190612a86565b6119ee9190612b0f565b9050600082606487611a009190612a86565b611a0a9190612b0f565b9050600083606487611a1c9190612a86565b611a269190612b0f565b9050600084606487611a389190612a86565b611a429190612b0f565b9050838383839c509c509c509c5050505050505050505090919293565b6000604051905090565b600080fd5b600080fd5b600080fd5b600080fd5b6000601f19601f8301169050919050565b7f4e487b7100000000000000000000000000000000000000000000000000000000600052604160045260246000fd5b611ac682611a7d565b810181811067ffffffffffffffff82111715611ae557611ae4611a8e565b5b80604052505050565b6000611af8611a5f565b9050611b048282611abd565b919050565b600067ffffffffffffffff821115611b2457611b23611a8e565b5b611b2d82611a7d565b9050602081019050919050565b82818337600083830152505050565b6000611b5c611b5784611b09565b611aee565b905082815260208101848484011115611b7857611b77611a78565b5b611b83848285611b3a565b509392505050565b600082601f830112611ba057611b9f611a73565b5b8135611bb0848260208601611b49565b91505092915050565b600060208284031215611bcf57611bce611a69565b5b600082013567ffffffffffffffff811115611bed57611bec611a6e565b5b611bf984828501611b8b565b91505092915050565b6000819050919050565b611c1581611c02565b82525050565b6000602082019050611c306000830184611c0c565b92915050565b611c3f81611c02565b8114611c4a57600080fd5b50565b600081359050611c5c81611c36565b92915050565b600060208284031215611c7857611c77611a69565b5b6000611c8684828501611c4d565b91505092915050565b600073ffffffffffffffffffffffffffffffffffffffff82169050919050565b6000611cba82611c8f565b9050919050565b611cca81611caf565b8114611cd557600080fd5b50565b600081359050611ce781611cc1565b92915050565b600060208284031215611d0357611d02611a69565b5b6000611d1184828501611cd8565b91505092915050565b60008115159050919050565b611d2f81611d1a565b82525050565b6000602082019050611d4a6000830184611d26565b92915050565b600081519050919050565b600082825260208201905092915050565b60005b83811015611d8a578082015181840152602081019050611d6f565b60008484015250505050565b6000611da182611d50565b611dab8185611d5b565b9350611dbb818560208601611d6c565b611dc481611a7d565b840191505092915050565b600061012082019050611de5600083018c611c0c565b8181036020830152611df7818b611d96565b9050611e06604083018a611c0c565b8181036060830152611e188189611d96565b90508181036080830152611e2c8188611d96565b905081810360a0830152611e408187611d96565b905081810360c0830152611e548186611d96565b9050611e6360e0830185611d26565b611e71610100830184611d26565b9a9950505050505050505050565b611e8881611d1a565b8114611e9357600080fd5b50565b600081359050611ea581611e7f565b92915050565b600080600080600080600060e0888a031215611eca57611ec9611a69565b5b600088013567ffffffffffffffff811115611ee857611ee7611a6e565b5b611ef48a828b01611b8b565b9750506020611f058a828b01611c4d565b965050604088013567ffffffffffffffff811115611f2657611f25611a6e565b5b611f328a828b01611b8b565b955050606088013567ffffffffffffffff811115611f5357611f52611a6e565b5b611f5f8a828b01611b8b565b945050608088013567ffffffffffffffff811115611f8057611f7f611a6e565b5b611f8c8a828b01611b8b565b93505060a088013567ffffffffffffffff811115611fad57611fac611a6e565b5b611fb98a828b01611b8b565b92505060c0611fca8a828b01611e96565b91505092959891949750929550565b600061016082019050611fef600083018e611c0c565b611ffc602083018d611c0c565b612009604083018c611c0c565b612016606083018b611c0c565b612023608083018a611c0c565b61203060a0830189611c0c565b61203d60c0830188611c0c565b61204a60e0830187611c0c565b612058610100830186611c0c565b612066610120830185611c0c565b612074610140830184611c0c565b9c9b505050505050505050505050565b6000806040838503121561209b5761209a611a69565b5b60006120a985828601611c4d565b92505060206120ba85828601611e96565b9150509250929050565b600080604083850312156120db576120da611a69565b5b60006120e985828601611c4d565b925050602083013567ffffffffffffffff81111561210a57612109611a6e565b5b61211685828601611b8b565b9150509250929050565b600081519050919050565b600082825260208201905092915050565b6000819050602082019050919050565b600082825260208201905092915050565b600061216882611d50565b612172818561214c565b9350612182818560208601611d6c565b61218b81611a7d565b840191505092915050565b60006121a2838361215d565b905092915050565b6000602082019050919050565b60006121c282612120565b6121cc818561212b565b9350836020820285016121de8561213c565b8060005b8581101561221a57848403895281516121fb8582612196565b9450612206836121aa565b925060208a019950506001810190506121e2565b50829750879550505050505092915050565b600081519050919050565b600082825260208201905092915050565b6000819050602082019050919050565b61226181611c02565b82525050565b60006122738383612258565b60208301905092915050565b6000602082019050919050565b60006122978261222c565b6122a18185612237565b93506122ac83612248565b8060005b838110156122dd5781516122c48882612267565b97506122cf8361227f565b9250506001810190506122b0565b5085935050505092915050565b6000604082019050818103600083015261230481856121b7565b90508181036020830152612318818461228c565b90509392505050565b600060e082019050612336600083018a611c0c565b81810360208301526123488189611d96565b90506123576040830188611c0c565b6123646060830187611c0c565b6123716080830186611c0c565b61237e60a0830185611c0c565b61238b60c0830184611c0c565b98975050505050505050565b600060208201905081810360008301526123b18184611d96565b905092915050565b7f4e487b7100000000000000000000000000000000000000000000000000000000600052602260045260246000fd5b6000600282049050600182168061240057607f821691505b602082108103612413576124126123b9565b5b50919050565b7f4e487b7100000000000000000000000000000000000000000000000000000000600052601160045260246000fd5b600061245382611c02565b91507fffffffffffffffffffffffffffffffffffffffffffffffffffffffffffffffff820361248557612484612419565b5b600182019050919050565b60008190508160005260206000209050919050565b60006020601f8301049050919050565b600082821b905092915050565b6000600883026124f27fffffffffffffffffffffffffffffffffffffffffffffffffffffffffffffffff826124b5565b6124fc86836124b5565b95508019841693508086168417925050509392505050565b6000819050919050565b600061253961253461252f84611c02565b612514565b611c02565b9050919050565b6000819050919050565b6125538361251e565b61256761255f82612540565b8484546124c2565b825550505050565b600090565b61257c61256f565b61258781848461254a565b505050565b5b818110156125ab576125a0600082612574565b60018101905061258d565b5050565b601f8211156125f0576125c181612490565b6125ca846124a5565b810160208510156125d9578190505b6125ed6125e5856124a5565b83018261258c565b50505b505050565b600082821c905092915050565b6000612613600019846008026125f5565b1980831691505092915050565b600061262c8383612602565b9150826002028217905092915050565b61264582611d50565b67ffffffffffffffff81111561265e5761265d611a8e565b5b61266882546123e8565b6126738282856125af565b600060209050601f8311600181146126a65760008415612694578287015190505b61269e8582612620565b865550612706565b601f1984166126b486612490565b60005b828110156126dc578489015182556001820191506020850194506020810190506126b7565b868310156126f957848901516126f5601f891682612602565b8355505b6001600288020188555050505b505050505050565b600060e0820190508181036000830152612728818a611d96565b90506127376020830189611c0c565b81810360408301526127498188611d96565b9050818103606083015261275d8187611d96565b905081810360808301526127718186611d96565b905081810360a08301526127858185611d96565b905061279460c0830184611d26565b98975050505050505050565b7f53656e646572206973206e6f7420616e2041646d696e00000000000000000000600082015250565b60006127d6601683611d5b565b91506127e1826127a0565b602082019050919050565b60006020820190508181036000830152612805816127c9565b9050919050565b600081905092915050565b600061282282611d50565b61282c818561280c565b935061283c818560208601611d6c565b80840191505092915050565b60006128548284612817565b915081905092915050565b7f74776f5f646f7365000000000000000000000000000000000000000000000000600082015250565b600061289560088361280c565b91506128a08261285f565b600882019050919050565b60006128b682612888565b9150819050919050565b7f4e487b7100000000000000000000000000000000000000000000000000000000600052603260045260246000fd5b600081546128fc816123e8565b612906818661280c565b94506001821660008114612921576001811461293657612969565b60ff1983168652811515820286019350612969565b61293f85612490565b60005b8381101561296157815481890152600182019150602081019050612942565b838801955050505b50505092915050565b600061297e82846128ef565b915081905092915050565b600061299482611c02565b915061299f83611c02565b92508282039050818111156129b7576129b6612419565b5b92915050565b7f4e6f2070617469656e747320696e207468697320646973747269637400000000600082015250565b60006129f3601c83611d5b565b91506129fe826129bd565b602082019050919050565b60006020820190508181036000830152612a22816129e6565b9050919050565b6000612a3482611c02565b915060008203612a4757612a46612419565b5b600182039050919050565b6000612a5d82611c02565b9150612a6883611c02565b9250828201905080821115612a8057612a7f612419565b5b92915050565b6000612a9182611c02565b9150612a9c83611c02565b9250817fffffffffffffffffffffffffffffffffffffffffffffffffffffffffffffffff0483118215151615612ad557612ad4612419565b5b828202905092915050565b7f4e487b7100000000000000000000000000000000000000000000000000000000600052601260045260246000fd5b6000612b1a82611c02565b9150612b2583611c02565b925082612b3557612b34612ae0565b5b828204905092915050565b7f456d707479206172726179000000000000000000000000000000000000000000600082015250565b6000612b76600b83611d5b565b9150612b8182612b40565b602082019050919050565b60006020820190508181036000830152612ba581612b69565b9050919050565b6000612bb782611c02565b9150612bc283611c02565b925082612bd257612bd1612ae0565b5b82820690509291505056fea2646970667358221220010fd93d972f02bac92a99fabe7b291fe866f843dd3f4f461deb0d9c3b78d79664736f6c63430008100033",
  "immutableReferences": {},
  "source": "// SPDX-License-Identifier: GPL-3.0\npragma solidity >=0.7.0 <0.9.0;\n\ncontract PatientManagement {\n    // Emit an event when a patient is added with the is_dead flag set to true\n    event PatientAddedWithDeath(uint indexed id, string name, string district, bool is_dead);\n    event votedEvent(uint indexed _candidateId);\n    event PatientAdded(\n        uint indexed id,\n        string name,\n        uint age,\n        string gender,\n        string vaccine_status,\n        string district,\n        string symptoms_details,\n        bool is_dead\n    );\n\n    // model a candidate\n    struct Patient{\n        uint id;\n        string name;\n        uint age;\n        string gender;\n        string vaccine_status;\n        string district;\n        string symptoms_details;\n        bool is_dead;\n        bool isDoubleDosed;\n    }\n\n    // Store accounts that have voted\n    mapping( address => bool ) public admins;\n\n    mapping( uint => Patient ) public patients;\n\n    // store candidates count\n    uint public patientsCount=0;\n    \n    // Structure to hold district-wise patient statistics\nstruct DistrictStats {\n    uint totalPatients;\n    uint totalDeaths;\n    uint totalAge;\n    uint childCount;\n    uint teenCount;\n    uint youthCount;\n    uint elderCount;\n    uint childPercent;\n    uint teenPercent;\n    uint youthPercent;\n    uint elderPercent;\n}\n\n    // Mapping to store district-wise statistics\n    mapping(string => DistrictStats) public districtStats;\n    // Function to update Covid trend statistics\n    function updateCovidTrend(uint _id, uint _age, string memory _district, bool _is_dead, bool isAddition) internal {\n        // Check if the district statistics already exist, if not, initialize them\n        if (districtStats[_district].totalPatients == 0) {\n            districtStats[_district] = DistrictStats(0, 0, 0, 0, 0, 0, 0, 0, 0, 0, 0);\n        }\n\n        // Get a reference to the district statistics\n        DistrictStats storage stats = districtStats[_district];\n        \n        // Increment or decrement totalPatients\n        if (isAddition) {\n            stats.totalPatients++;\n        } else {\n            require(stats.totalPatients > 0, \"No patients in this district\");\n            stats.totalPatients--;\n        }\n        \n        // Update totalAge\n        stats.totalAge += _age;\n\n        // Update death count\n        if (_is_dead) {\n            stats.totalDeaths++;\n        }\n\n        // Update age group counts\n        if (_age < 13) {\n            stats.childCount++;\n        } else if (_age < 20) {\n            stats.teenCount++;\n        } else if (_age < 50) {\n            stats.youthCount++;\n        } else {\n            stats.elderCount++;\n        }\n\n        // Calculate percentage of age groups\n        uint totalPatients = stats.totalPatients;\n        stats.childPercent = (stats.childCount * 100) / totalPatients;\n        stats.teenPercent = (stats.teenCount * 100) / totalPatients;\n        stats.youthPercent = (stats.youthCount * 100) / totalPatients;\n        stats.elderPercent = (stats.elderCount * 100) / totalPatients;\n    }\n\n\n   \n    // Mapping to store death count for each district\n    mapping(string => uint) public districtDeathCounts;\n\n    // Function to update death count for a district\n    function updateDistrictDeathCount(string memory _district, bool _is_dead) internal {\n        if (_is_dead) {\n            districtDeathCounts[_district]++;\n        }\n    }\n\n    // Array to store all district names\n    string[] public districts;\n\n    // Check if a district exists\n    function districtExists(string memory _district) internal view returns (bool) {\n        for (uint i = 0; i < districts.length; i++) {\n            if (keccak256(abi.encodePacked(districts[i])) == keccak256(abi.encodePacked(_district))) {\n                return true;\n            }\n        }\n        return false;\n    }\n\n    // adding candidates\n    function addPatient(string memory _name, uint _age ,string memory _gender,string memory _vaccine_status,string memory _district,string memory _symptoms_details,bool _is_dead ) public {\n        patientsCount++;\n        bool isDoubleDosed = compareStrings(_vaccine_status, \"two_dose\"); // Check if vaccine status is \"Two Dose\"\n        patients[patientsCount] = Patient(patientsCount, _name,_age, _gender, _vaccine_status, _district, _symptoms_details, _is_dead, isDoubleDosed );\n        \n        // Update district death count if the patient is dead\n        if (_is_dead) {\n            updateDistrictDeathCount(_district, _is_dead);\n        }\n        \n        // Update Covid trend statistics\n        updateCovidTrend(patientsCount, _age, _district, _is_dead, true);\n\n    \n        // Add the district name if it's not already present in the districts array\n        if (!districtExists(_district)) {\n            districts.push(_district);\n        }\n        \n        emit PatientAdded(patientsCount, _name, _age, _gender, _vaccine_status, _district, _symptoms_details, _is_dead);\n    }\n\n   // Function to compare two strings\n    function compareStrings(string memory a, string memory b) internal pure returns (bool) {\n        return (keccak256(abi.encodePacked((a))) == keccak256(abi.encodePacked((b))));\n    }\n\n    // cast vote\n    function makeAdmin(uint _candidateId) public {\n        // require that the current voter haven't voted before\n        require(!admins[msg.sender]);\n        /// emit the event\n        emit votedEvent(_candidateId);\n\n        // record voters vote\n        admins[msg.sender] = true;\n    }\n\n    modifier senderIsAdmin {\n        require(admins[msg.sender] == true, \"Sender is not an Admin\");\n        _;\n    }\n\n    function updateVaccine(uint _id, string memory _vaccine_status) public senderIsAdmin {\n    patients[_id].vaccine_status = _vaccine_status;\n\n    // Check if the vaccine status is \"Two Dose\" and update the isDoubleDosed flag accordingly\n    if (keccak256(abi.encodePacked(_vaccine_status)) == keccak256(abi.encodePacked(\"two_dose\"))) {\n        patients[_id].isDoubleDosed = true;\n    } else {\n        patients[_id].isDoubleDosed = false;\n    }\n}\n\n\n    function getDistrictDeathCounts() public view returns (string[] memory, uint[] memory) {\n        uint length = districts.length;\n        uint[] memory deathCounts = new uint[](length);\n        string[] memory districtNames = new string[](length);\n        uint highestDeathCount = 0;\n        uint highestDeathCountDistrictsCount = 0;\n\n        // Iterate over all districts to populate the arrays\n        for (uint i = 0; i < length; i++) {\n            string memory districtName = districts[i];\n            uint deathCount = districtDeathCounts[districtName];\n            deathCounts[i] = deathCount;\n            districtNames[i] = districtName;\n\n            // Check if the death count is higher than the current highest death count\n            if (deathCount > highestDeathCount) {\n                highestDeathCount = deathCount;\n                highestDeathCountDistrictsCount = 1;\n            } else if (deathCount == highestDeathCount) {\n                highestDeathCountDistrictsCount++;\n            }\n        }\n\n        // Create a new array to store only the districts with the highest death count\n        string[] memory districtsWithHighestDeathCount = new string[](highestDeathCountDistrictsCount);\n        uint index = 0;\n        for (uint j = 0; j < length; j++) {\n            if (deathCounts[j] == highestDeathCount) {\n                districtsWithHighestDeathCount[index] = districtNames[j];\n                index++;\n            }\n        }\n\n        return (districtsWithHighestDeathCount, deathCounts);\n    }\n\n    function updateDeath(uint _id, bool _is_dead) public senderIsAdmin {\n        bool currentDeathStatus = patients[_id].is_dead;\n        \n        // Update patient death status\n        patients[_id].is_dead = _is_dead;\n        \n        // Update Covid trend statistics only if death status changes\n        string memory district = patients[_id].district;\n        if (currentDeathStatus != _is_dead) {\n            if (_is_dead) {\n                districtDeathCounts[district]++;\n            }\n            \n            updateCovidTrend(_id, patients[_id].age, patients[_id].district, _is_dead, !_is_dead);\n        }\n    }\n\n    function getCovidTrend() public view returns (uint, string memory, uint, uint, uint, uint, uint) {\n    uint totalDeaths;\n    uint medianAge;\n    uint childPercent;\n    uint teenPercent;\n    uint youthPercent;\n    uint elderPercent;\n    string memory districtWithHighestDeathCount;\n\n    // Calculate total deaths\n    for (uint i = 1; i <= patientsCount; i++) {\n        if (patients[i].is_dead) {\n            totalDeaths++;\n        }\n    }\n\n    // Find district with highest death count\n    uint highestDeathCount = 0;\n    for (uint j = 0; j < districts.length; j++) {\n        uint deathCount = districtDeathCounts[districts[j]];\n        if (deathCount > highestDeathCount) {\n            highestDeathCount = deathCount;\n            districtWithHighestDeathCount = districts[j];\n        }\n    }\n\n    // Calculate median age\n    uint[] memory ages = new uint[](patientsCount);\n    for (uint k = 1; k <= patientsCount; k++) {\n        ages[k - 1] = patients[k].age;\n    }\n    medianAge = calculateMedian(ages);\n\n    // Calculate age group percentages for all patients\n    (childPercent, teenPercent, youthPercent, elderPercent) = calculateAgeGroupPercentages();\n\n    return (totalDeaths, districtWithHighestDeathCount, medianAge, childPercent, teenPercent, youthPercent, elderPercent);\n}\n\n\n\nfunction calculateAgeGroupPercentages() internal view returns (uint, uint, uint, uint) {\n    uint childCount;\n    uint teenCount;\n    uint youthCount;\n    uint elderCount;\n\n    // Count patients in each age group\n    for (uint i = 1; i <= patientsCount; i++) {\n        uint age = patients[i].age;\n        if (age < 13) {\n            childCount++;\n        } else if (age < 20) {\n            teenCount++;\n        } else if (age < 50) {\n            youthCount++;\n        } else {\n            elderCount++;\n        }\n    }\n\n    // Calculate percentages\n    uint totalPatients = patientsCount;\n    uint childPercent = (childCount * 100) / totalPatients;\n    uint teenPercent = (teenCount * 100) / totalPatients;\n    uint youthPercent = (youthCount * 100) / totalPatients;\n    uint elderPercent = (elderCount * 100) / totalPatients;\n\n    return (childPercent, teenPercent, youthPercent, elderPercent);\n}\n\n// Function to calculate median\nfunction calculateMedian(uint[] memory values) internal pure returns (uint) {\n    uint n = values.length;\n    require(n > 0, \"Empty array\");\n    if (n % 2 == 0) {\n        return (values[n / 2 - 1] + values[n / 2]) / 2;\n    } else {\n        return values[n / 2];\n    }\n}\n\n\n}\n",
  "sourcePath": "/home/proma/446 project/446/contracts/PatientManagement.sol",
  "compiler": {
    "name": "solc",
    "version": "0.8.16+commit.07a7930e.Emscripten.clang"
  },
  "schemaVersion": "3.4.16",
  "updatedAt": "2024-04-13T23:37:29.055Z",
  "networkType": "ethereum",
  "devdoc": {
    "kind": "dev",
    "methods": {},
    "version": 1
  },
  "userdoc": {
    "kind": "user",
    "methods": {},
    "version": 1
  }
}