{
  "contractName": "PatientManagement",
  "abi": [
    {
      "anonymous": false,
      "inputs": [
        {
          "indexed": true,
          "internalType": "uint256",
          "name": "id",
          "type": "uint256"
        },
        {
          "indexed": false,
          "internalType": "string",
          "name": "name",
          "type": "string"
        },
        {
          "indexed": false,
          "internalType": "uint256",
          "name": "age",
          "type": "uint256"
        },
        {
          "indexed": false,
          "internalType": "string",
          "name": "gender",
          "type": "string"
        },
        {
          "indexed": false,
          "internalType": "string",
          "name": "vaccine_status",
          "type": "string"
        },
        {
          "indexed": false,
          "internalType": "string",
          "name": "district",
          "type": "string"
        },
        {
          "indexed": false,
          "internalType": "string",
          "name": "symptoms_details",
          "type": "string"
        },
        {
          "indexed": false,
          "internalType": "bool",
          "name": "is_dead",
          "type": "bool"
        }
      ],
      "name": "PatientAdded",
      "type": "event"
    },
    {
      "anonymous": false,
      "inputs": [
        {
          "indexed": true,
          "internalType": "uint256",
          "name": "_candidateId",
          "type": "uint256"
        }
      ],
      "name": "votedEvent",
      "type": "event"
    },
    {
      "inputs": [
        {
          "internalType": "address",
          "name": "",
          "type": "address"
        }
      ],
      "name": "admins",
      "outputs": [
        {
          "internalType": "bool",
          "name": "",
          "type": "bool"
        }
      ],
      "stateMutability": "view",
      "type": "function",
      "constant": true
    },
    {
      "inputs": [
        {
          "internalType": "uint256",
          "name": "",
          "type": "uint256"
        }
      ],
      "name": "patients",
      "outputs": [
        {
          "internalType": "uint256",
          "name": "id",
          "type": "uint256"
        },
        {
          "internalType": "string",
          "name": "name",
          "type": "string"
        },
        {
          "internalType": "uint256",
          "name": "age",
          "type": "uint256"
        },
        {
          "internalType": "string",
          "name": "gender",
          "type": "string"
        },
        {
          "internalType": "string",
          "name": "vaccine_status",
          "type": "string"
        },
        {
          "internalType": "string",
          "name": "district",
          "type": "string"
        },
        {
          "internalType": "string",
          "name": "symptoms_details",
          "type": "string"
        },
        {
          "internalType": "bool",
          "name": "is_dead",
          "type": "bool"
        }
      ],
      "stateMutability": "view",
      "type": "function",
      "constant": true
    },
    {
      "inputs": [],
      "name": "patientsCount",
      "outputs": [
        {
          "internalType": "uint256",
          "name": "",
          "type": "uint256"
        }
      ],
      "stateMutability": "view",
      "type": "function",
      "constant": true
    },
    {
      "inputs": [
        {
          "internalType": "string",
          "name": "_name",
          "type": "string"
        },
        {
          "internalType": "uint256",
          "name": "_age",
          "type": "uint256"
        },
        {
          "internalType": "string",
          "name": "_gender",
          "type": "string"
        },
        {
          "internalType": "string",
          "name": "_vaccine_status",
          "type": "string"
        },
        {
          "internalType": "string",
          "name": "_district",
          "type": "string"
        },
        {
          "internalType": "string",
          "name": "_symptoms_details",
          "type": "string"
        },
        {
          "internalType": "bool",
          "name": "_is_dead",
          "type": "bool"
        }
      ],
      "name": "addPatient",
      "outputs": [],
      "stateMutability": "nonpayable",
      "type": "function"
    },
    {
      "inputs": [
        {
          "internalType": "uint256",
          "name": "_candidateId",
          "type": "uint256"
        }
      ],
      "name": "makeAdmin",
      "outputs": [],
      "stateMutability": "nonpayable",
      "type": "function"
    },
    {
      "inputs": [
        {
          "internalType": "uint256",
          "name": "_id",
          "type": "uint256"
        },
        {
          "internalType": "string",
          "name": "_vaccine_status",
          "type": "string"
        }
      ],
      "name": "updateVaccine",
      "outputs": [],
      "stateMutability": "nonpayable",
      "type": "function"
    },
    {
      "inputs": [
        {
          "internalType": "uint256",
          "name": "_id",
          "type": "uint256"
        },
        {
          "internalType": "bool",
          "name": "_is_dead",
          "type": "bool"
        }
      ],
      "name": "updateDeath",
      "outputs": [],
      "stateMutability": "nonpayable",
      "type": "function"
    }
  ],
  "bytecode": "0x6080604052600060025534801561001557600080fd5b5061129b806100256000396000f3fe608060405234801561001057600080fd5b506004361061007d5760003560e01c8063a7da4f7a1161005b578063a7da4f7a14610105578063b4536e5d14610121578063b6b1289d1461013d578063bfa178331461015b5761007d565b806340e9009c14610082578063429b62e51461009e57806393119a83146100ce575b600080fd5b61009c6004803603810190610097919061089e565b610177565b005b6100b860048036038101906100b39190610929565b610254565b6040516100c59190610971565b60405180910390f35b6100e860048036038101906100e3919061089e565b610274565b6040516100fc989796959493929190610a2b565b60405180910390f35b61011f600480360381019061011a9190610c2d565b610571565b005b61013b60048036038101906101369190610d5b565b6106d0565b005b610145610794565b6040516101529190610d9b565b60405180910390f35b61017560048036038101906101709190610db6565b61079a565b005b6000803373ffffffffffffffffffffffffffffffffffffffff1673ffffffffffffffffffffffffffffffffffffffff16815260200190815260200160002060009054906101000a900460ff16156101cd57600080fd5b807ffff3c900d938d21d0990d786e819f29b8d05c1ef587b462b939609625b684b1660405160405180910390a260016000803373ffffffffffffffffffffffffffffffffffffffff1673ffffffffffffffffffffffffffffffffffffffff16815260200190815260200160002060006101000a81548160ff02191690831515021790555050565b60006020528060005260406000206000915054906101000a900460ff1681565b600160205280600052604060002060009150905080600001549080600101805461029d90610e41565b80601f01602080910402602001604051908101604052809291908181526020018280546102c990610e41565b80156103165780601f106102eb57610100808354040283529160200191610316565b820191906000526020600020905b8154815290600101906020018083116102f957829003601f168201915b50505050509080600201549080600301805461033190610e41565b80601f016020809104026020016040519081016040528092919081815260200182805461035d90610e41565b80156103aa5780601f1061037f576101008083540402835291602001916103aa565b820191906000526020600020905b81548152906001019060200180831161038d57829003601f168201915b5050505050908060040180546103bf90610e41565b80601f01602080910402602001604051908101604052809291908181526020018280546103eb90610e41565b80156104385780601f1061040d57610100808354040283529160200191610438565b820191906000526020600020905b81548152906001019060200180831161041b57829003601f168201915b50505050509080600501805461044d90610e41565b80601f016020809104026020016040519081016040528092919081815260200182805461047990610e41565b80156104c65780601f1061049b576101008083540402835291602001916104c6565b820191906000526020600020905b8154815290600101906020018083116104a957829003601f168201915b5050505050908060060180546104db90610e41565b80601f016020809104026020016040519081016040528092919081815260200182805461050790610e41565b80156105545780601f1061052957610100808354040283529160200191610554565b820191906000526020600020905b81548152906001019060200180831161053757829003601f168201915b5050505050908060070160009054906101000a900460ff16905088565b6002600081548092919061058490610ea1565b919050555060405180610100016040528060025481526020018881526020018781526020018681526020018581526020018481526020018381526020018215158152506001600060025481526020019081526020016000206000820151816000015560208201518160010190816105fb9190611095565b5060408201518160020155606082015181600301908161061b9190611095565b5060808201518160040190816106319190611095565b5060a08201518160050190816106479190611095565b5060c082015181600601908161065d9190611095565b5060e08201518160070160006101000a81548160ff0219169083151502179055509050506002547f14114d2ffb1c6b656f341bcbed3f8a6dc98be98c71e1c7bf30fe9324af0b97a5888888888888886040516106bf9796959493929190611167565b60405180910390a250505050505050565b600115156000803373ffffffffffffffffffffffffffffffffffffffff1673ffffffffffffffffffffffffffffffffffffffff16815260200190815260200160002060009054906101000a900460ff16151514610762576040517f08c379a000000000000000000000000000000000000000000000000000000000815260040161075990611245565b60405180910390fd5b806001600084815260200190815260200160002060070160006101000a81548160ff0219169083151502179055505050565b60025481565b600115156000803373ffffffffffffffffffffffffffffffffffffffff1673ffffffffffffffffffffffffffffffffffffffff16815260200190815260200160002060009054906101000a900460ff1615151461082c576040517f08c379a000000000000000000000000000000000000000000000000000000000815260040161082390611245565b60405180910390fd5b8060016000848152602001908152602001600020600401908161084f9190611095565b505050565b6000604051905090565b600080fd5b600080fd5b6000819050919050565b61087b81610868565b811461088657600080fd5b50565b60008135905061089881610872565b92915050565b6000602082840312156108b4576108b361085e565b5b60006108c284828501610889565b91505092915050565b600073ffffffffffffffffffffffffffffffffffffffff82169050919050565b60006108f6826108cb565b9050919050565b610906816108eb565b811461091157600080fd5b50565b600081359050610923816108fd565b92915050565b60006020828403121561093f5761093e61085e565b5b600061094d84828501610914565b91505092915050565b60008115159050919050565b61096b81610956565b82525050565b60006020820190506109866000830184610962565b92915050565b61099581610868565b82525050565b600081519050919050565b600082825260208201905092915050565b60005b838110156109d55780820151818401526020810190506109ba565b60008484015250505050565b6000601f19601f8301169050919050565b60006109fd8261099b565b610a0781856109a6565b9350610a178185602086016109b7565b610a20816109e1565b840191505092915050565b600061010082019050610a41600083018b61098c565b8181036020830152610a53818a6109f2565b9050610a62604083018961098c565b8181036060830152610a7481886109f2565b90508181036080830152610a8881876109f2565b905081810360a0830152610a9c81866109f2565b905081810360c0830152610ab081856109f2565b9050610abf60e0830184610962565b9998505050505050505050565b600080fd5b600080fd5b7f4e487b7100000000000000000000000000000000000000000000000000000000600052604160045260246000fd5b610b0e826109e1565b810181811067ffffffffffffffff82111715610b2d57610b2c610ad6565b5b80604052505050565b6000610b40610854565b9050610b4c8282610b05565b919050565b600067ffffffffffffffff821115610b6c57610b6b610ad6565b5b610b75826109e1565b9050602081019050919050565b82818337600083830152505050565b6000610ba4610b9f84610b51565b610b36565b905082815260208101848484011115610bc057610bbf610ad1565b5b610bcb848285610b82565b509392505050565b600082601f830112610be857610be7610acc565b5b8135610bf8848260208601610b91565b91505092915050565b610c0a81610956565b8114610c1557600080fd5b50565b600081359050610c2781610c01565b92915050565b600080600080600080600060e0888a031215610c4c57610c4b61085e565b5b600088013567ffffffffffffffff811115610c6a57610c69610863565b5b610c768a828b01610bd3565b9750506020610c878a828b01610889565b965050604088013567ffffffffffffffff811115610ca857610ca7610863565b5b610cb48a828b01610bd3565b955050606088013567ffffffffffffffff811115610cd557610cd4610863565b5b610ce18a828b01610bd3565b945050608088013567ffffffffffffffff811115610d0257610d01610863565b5b610d0e8a828b01610bd3565b93505060a088013567ffffffffffffffff811115610d2f57610d2e610863565b5b610d3b8a828b01610bd3565b92505060c0610d4c8a828b01610c18565b91505092959891949750929550565b60008060408385031215610d7257610d7161085e565b5b6000610d8085828601610889565b9250506020610d9185828601610c18565b9150509250929050565b6000602082019050610db0600083018461098c565b92915050565b60008060408385031215610dcd57610dcc61085e565b5b6000610ddb85828601610889565b925050602083013567ffffffffffffffff811115610dfc57610dfb610863565b5b610e0885828601610bd3565b9150509250929050565b7f4e487b7100000000000000000000000000000000000000000000000000000000600052602260045260246000fd5b60006002820490506001821680610e5957607f821691505b602082108103610e6c57610e6b610e12565b5b50919050565b7f4e487b7100000000000000000000000000000000000000000000000000000000600052601160045260246000fd5b6000610eac82610868565b91507fffffffffffffffffffffffffffffffffffffffffffffffffffffffffffffffff8203610ede57610edd610e72565b5b600182019050919050565b60008190508160005260206000209050919050565b60006020601f8301049050919050565b600082821b905092915050565b600060088302610f4b7fffffffffffffffffffffffffffffffffffffffffffffffffffffffffffffffff82610f0e565b610f558683610f0e565b95508019841693508086168417925050509392505050565b6000819050919050565b6000610f92610f8d610f8884610868565b610f6d565b610868565b9050919050565b6000819050919050565b610fac83610f77565b610fc0610fb882610f99565b848454610f1b565b825550505050565b600090565b610fd5610fc8565b610fe0818484610fa3565b505050565b5b8181101561100457610ff9600082610fcd565b600181019050610fe6565b5050565b601f8211156110495761101a81610ee9565b61102384610efe565b81016020851015611032578190505b61104661103e85610efe565b830182610fe5565b50505b505050565b600082821c905092915050565b600061106c6000198460080261104e565b1980831691505092915050565b6000611085838361105b565b9150826002028217905092915050565b61109e8261099b565b67ffffffffffffffff8111156110b7576110b6610ad6565b5b6110c18254610e41565b6110cc828285611008565b600060209050601f8311600181146110ff57600084156110ed578287015190505b6110f78582611079565b86555061115f565b601f19841661110d86610ee9565b60005b8281101561113557848901518255600182019150602085019450602081019050611110565b86831015611152578489015161114e601f89168261105b565b8355505b6001600288020188555050505b505050505050565b600060e0820190508181036000830152611181818a6109f2565b9050611190602083018961098c565b81810360408301526111a281886109f2565b905081810360608301526111b681876109f2565b905081810360808301526111ca81866109f2565b905081810360a08301526111de81856109f2565b90506111ed60c0830184610962565b98975050505050505050565b7f53656e646572206973206e6f74206120646f63746f7200000000000000000000600082015250565b600061122f6016836109a6565b915061123a826111f9565b602082019050919050565b6000602082019050818103600083015261125e81611222565b905091905056fea2646970667358221220825c995300123996cd15db14a9287602e2fa408e28faba6701de2c7c161a6e8364736f6c63430008100033",
  "immutableReferences": {},
  "source": "// SPDX-License-Identifier: GPL-3.0\npragma solidity >=0.7.0 <0.9.0;\n\ncontract PatientManagement {\n\n   event votedEvent(uint indexed _candidateId);\n   event PatientAdded(\n       uint indexed id,\n       string name,\n       uint age,\n       string gender,\n       string vaccine_status,\n       string district,\n       string symptoms_details,\n       bool is_dead\n   );\n\n   // model a candidate\n   struct Patient{\n       uint id;\n       string name;\n       uint age;\n       string gender;\n       string vaccine_status;\n       string district;\n       string symptoms_details;\n       bool is_dead;\n   }\n\n   // Store accounts that have voted\n   mapping( address => bool ) public admins;\n\n   mapping( uint => Patient ) public patients;\n\n   // store candidates count\n   uint public patientsCount=0;\n\n   // adding candidates\n   function addPatient(string memory _name, uint _age ,string memory _gender,string memory _vaccine_status,string memory _district,string memory _symptoms_details,bool _is_dead) public {\n       patientsCount++;\n       patients[patientsCount] = Patient(patientsCount, _name,_age, _gender, _vaccine_status, _district, _symptoms_details, _is_dead);\n       emit PatientAdded(patientsCount, _name, _age, _gender, _vaccine_status, _district, _symptoms_details, _is_dead);\n   }\n\n   // cast vote\n   function makeAdmin(uint _candidateId) public {\n       // require that the current voter haven't voted before\n       require(!admins[msg.sender]);\n       /// emit the event\n       emit votedEvent(_candidateId);\n\n       // record voters vote\n       admins[msg.sender] = true;\n   }\n   \n     modifier senderIsAdmin {\n    require(admins[msg.sender] == true, \"Sender is not a doctor\");\n    _;\n  }\n  \n     function updateVaccine(uint _id, string memory _vaccine_status) public senderIsAdmin {\n   \n       patients[_id].vaccine_status = _vaccine_status;\n       \n   }\n        function updateDeath(uint _id, bool _is_dead) public senderIsAdmin {\n   \n       patients[_id].is_dead = _is_dead;\n       \n   }\n\n}\n\n",
  "sourcePath": "/home/ubuntu/Desktop/election (copy)/contracts/PatientManagement.sol",
  "compiler": {
    "name": "solc",
    "version": "0.8.16+commit.07a7930e.Emscripten.clang"
  },
  "schemaVersion": "3.4.16",
  "updatedAt": "2024-04-13T05:48:54.432Z",
  "networkType": "ethereum",
  "devdoc": {
    "kind": "dev",
    "methods": {},
    "version": 1
  },
  "userdoc": {
    "kind": "user",
    "methods": {},
    "version": 1
  }
}