{
  "contractName": "PatientManagement",
  "abi": [
    {
      "anonymous": false,
      "inputs": [
        {
          "indexed": true,
          "internalType": "uint256",
          "name": "id",
          "type": "uint256"
        },
        {
          "indexed": false,
          "internalType": "string",
          "name": "name",
          "type": "string"
        },
        {
          "indexed": false,
          "internalType": "uint256",
          "name": "age",
          "type": "uint256"
        },
        {
          "indexed": false,
          "internalType": "string",
          "name": "gender",
          "type": "string"
        },
        {
          "indexed": false,
          "internalType": "string",
          "name": "vaccine_status",
          "type": "string"
        },
        {
          "indexed": false,
          "internalType": "string",
          "name": "district",
          "type": "string"
        },
        {
          "indexed": false,
          "internalType": "string",
          "name": "symptoms_details",
          "type": "string"
        },
        {
          "indexed": false,
          "internalType": "bool",
          "name": "is_dead",
          "type": "bool"
        }
      ],
      "name": "PatientAdded",
      "type": "event"
    },
    {
      "anonymous": false,
      "inputs": [
        {
          "indexed": true,
          "internalType": "uint256",
          "name": "_candidateId",
          "type": "uint256"
        }
      ],
      "name": "votedEvent",
      "type": "event"
    },
    {
      "inputs": [
        {
          "internalType": "address",
          "name": "",
          "type": "address"
        }
      ],
      "name": "admins",
      "outputs": [
        {
          "internalType": "bool",
          "name": "",
          "type": "bool"
        }
      ],
      "stateMutability": "view",
      "type": "function",
      "constant": true
    },
    {
      "inputs": [
        {
          "internalType": "uint256",
          "name": "",
          "type": "uint256"
        }
      ],
      "name": "patients",
      "outputs": [
        {
          "internalType": "uint256",
          "name": "id",
          "type": "uint256"
        },
        {
          "internalType": "string",
          "name": "name",
          "type": "string"
        },
        {
          "internalType": "uint256",
          "name": "age",
          "type": "uint256"
        },
        {
          "internalType": "string",
          "name": "gender",
          "type": "string"
        },
        {
          "internalType": "string",
          "name": "vaccine_status",
          "type": "string"
        },
        {
          "internalType": "string",
          "name": "district",
          "type": "string"
        },
        {
          "internalType": "string",
          "name": "symptoms_details",
          "type": "string"
        },
        {
          "internalType": "bool",
          "name": "is_dead",
          "type": "bool"
        }
      ],
      "stateMutability": "view",
      "type": "function",
      "constant": true
    },
    {
      "inputs": [],
      "name": "patientsCount",
      "outputs": [
        {
          "internalType": "uint256",
          "name": "",
          "type": "uint256"
        }
      ],
      "stateMutability": "view",
      "type": "function",
      "constant": true
    },
    {
      "inputs": [
        {
          "internalType": "string",
          "name": "_name",
          "type": "string"
        },
        {
          "internalType": "uint256",
          "name": "_age",
          "type": "uint256"
        },
        {
          "internalType": "string",
          "name": "_gender",
          "type": "string"
        },
        {
          "internalType": "string",
          "name": "_vaccine_status",
          "type": "string"
        },
        {
          "internalType": "string",
          "name": "_district",
          "type": "string"
        },
        {
          "internalType": "string",
          "name": "_symptoms_details",
          "type": "string"
        },
        {
          "internalType": "bool",
          "name": "_is_dead",
          "type": "bool"
        }
      ],
      "name": "addPatient",
      "outputs": [],
      "stateMutability": "nonpayable",
      "type": "function"
    },
    {
      "inputs": [
        {
          "internalType": "uint256",
          "name": "_candidateId",
          "type": "uint256"
        }
      ],
      "name": "makeAdmin",
      "outputs": [],
      "stateMutability": "nonpayable",
      "type": "function"
    }
  ],
  "bytecode": "0x6080604052600060025534801561001557600080fd5b50610fb7806100256000396000f3fe608060405234801561001057600080fd5b50600436106100575760003560e01c806340e9009c1461005c578063429b62e51461007857806393119a83146100a8578063a7da4f7a146100df578063b6b1289d146100fb575b600080fd5b610076600480360381019061007191906106c2565b610119565b005b610092600480360381019061008d919061074d565b6101f6565b60405161009f9190610795565b60405180910390f35b6100c260048036038101906100bd91906106c2565b610216565b6040516100d698979695949392919061084f565b60405180910390f35b6100f960048036038101906100f49190610a51565b610513565b005b610103610672565b6040516101109190610b7f565b60405180910390f35b6000803373ffffffffffffffffffffffffffffffffffffffff1673ffffffffffffffffffffffffffffffffffffffff16815260200190815260200160002060009054906101000a900460ff161561016f57600080fd5b807ffff3c900d938d21d0990d786e819f29b8d05c1ef587b462b939609625b684b1660405160405180910390a260016000803373ffffffffffffffffffffffffffffffffffffffff1673ffffffffffffffffffffffffffffffffffffffff16815260200190815260200160002060006101000a81548160ff02191690831515021790555050565b60006020528060005260406000206000915054906101000a900460ff1681565b600160205280600052604060002060009150905080600001549080600101805461023f90610bc9565b80601f016020809104026020016040519081016040528092919081815260200182805461026b90610bc9565b80156102b85780601f1061028d576101008083540402835291602001916102b8565b820191906000526020600020905b81548152906001019060200180831161029b57829003601f168201915b5050505050908060020154908060030180546102d390610bc9565b80601f01602080910402602001604051908101604052809291908181526020018280546102ff90610bc9565b801561034c5780601f106103215761010080835404028352916020019161034c565b820191906000526020600020905b81548152906001019060200180831161032f57829003601f168201915b50505050509080600401805461036190610bc9565b80601f016020809104026020016040519081016040528092919081815260200182805461038d90610bc9565b80156103da5780601f106103af576101008083540402835291602001916103da565b820191906000526020600020905b8154815290600101906020018083116103bd57829003601f168201915b5050505050908060050180546103ef90610bc9565b80601f016020809104026020016040519081016040528092919081815260200182805461041b90610bc9565b80156104685780601f1061043d57610100808354040283529160200191610468565b820191906000526020600020905b81548152906001019060200180831161044b57829003601f168201915b50505050509080600601805461047d90610bc9565b80601f01602080910402602001604051908101604052809291908181526020018280546104a990610bc9565b80156104f65780601f106104cb576101008083540402835291602001916104f6565b820191906000526020600020905b8154815290600101906020018083116104d957829003601f168201915b5050505050908060070160009054906101000a900460ff16905088565b6002600081548092919061052690610c29565b9190505550604051806101000160405280600254815260200188815260200187815260200186815260200185815260200184815260200183815260200182151581525060016000600254815260200190815260200160002060008201518160000155602082015181600101908161059d9190610e1d565b506040820151816002015560608201518160030190816105bd9190610e1d565b5060808201518160040190816105d39190610e1d565b5060a08201518160050190816105e99190610e1d565b5060c08201518160060190816105ff9190610e1d565b5060e08201518160070160006101000a81548160ff0219169083151502179055509050506002547f14114d2ffb1c6b656f341bcbed3f8a6dc98be98c71e1c7bf30fe9324af0b97a5888888888888886040516106619796959493929190610eef565b60405180910390a250505050505050565b60025481565b6000604051905090565b600080fd5b600080fd5b6000819050919050565b61069f8161068c565b81146106aa57600080fd5b50565b6000813590506106bc81610696565b92915050565b6000602082840312156106d8576106d7610682565b5b60006106e6848285016106ad565b91505092915050565b600073ffffffffffffffffffffffffffffffffffffffff82169050919050565b600061071a826106ef565b9050919050565b61072a8161070f565b811461073557600080fd5b50565b60008135905061074781610721565b92915050565b60006020828403121561076357610762610682565b5b600061077184828501610738565b91505092915050565b60008115159050919050565b61078f8161077a565b82525050565b60006020820190506107aa6000830184610786565b92915050565b6107b98161068c565b82525050565b600081519050919050565b600082825260208201905092915050565b60005b838110156107f95780820151818401526020810190506107de565b60008484015250505050565b6000601f19601f8301169050919050565b6000610821826107bf565b61082b81856107ca565b935061083b8185602086016107db565b61084481610805565b840191505092915050565b600061010082019050610865600083018b6107b0565b8181036020830152610877818a610816565b905061088660408301896107b0565b81810360608301526108988188610816565b905081810360808301526108ac8187610816565b905081810360a08301526108c08186610816565b905081810360c08301526108d48185610816565b90506108e360e0830184610786565b9998505050505050505050565b600080fd5b600080fd5b7f4e487b7100000000000000000000000000000000000000000000000000000000600052604160045260246000fd5b61093282610805565b810181811067ffffffffffffffff82111715610951576109506108fa565b5b80604052505050565b6000610964610678565b90506109708282610929565b919050565b600067ffffffffffffffff8211156109905761098f6108fa565b5b61099982610805565b9050602081019050919050565b82818337600083830152505050565b60006109c86109c384610975565b61095a565b9050828152602081018484840111156109e4576109e36108f5565b5b6109ef8482856109a6565b509392505050565b600082601f830112610a0c57610a0b6108f0565b5b8135610a1c8482602086016109b5565b91505092915050565b610a2e8161077a565b8114610a3957600080fd5b50565b600081359050610a4b81610a25565b92915050565b600080600080600080600060e0888a031215610a7057610a6f610682565b5b600088013567ffffffffffffffff811115610a8e57610a8d610687565b5b610a9a8a828b016109f7565b9750506020610aab8a828b016106ad565b965050604088013567ffffffffffffffff811115610acc57610acb610687565b5b610ad88a828b016109f7565b955050606088013567ffffffffffffffff811115610af957610af8610687565b5b610b058a828b016109f7565b945050608088013567ffffffffffffffff811115610b2657610b25610687565b5b610b328a828b016109f7565b93505060a088013567ffffffffffffffff811115610b5357610b52610687565b5b610b5f8a828b016109f7565b92505060c0610b708a828b01610a3c565b91505092959891949750929550565b6000602082019050610b9460008301846107b0565b92915050565b7f4e487b7100000000000000000000000000000000000000000000000000000000600052602260045260246000fd5b60006002820490506001821680610be157607f821691505b602082108103610bf457610bf3610b9a565b5b50919050565b7f4e487b7100000000000000000000000000000000000000000000000000000000600052601160045260246000fd5b6000610c348261068c565b91507fffffffffffffffffffffffffffffffffffffffffffffffffffffffffffffffff8203610c6657610c65610bfa565b5b600182019050919050565b60008190508160005260206000209050919050565b60006020601f8301049050919050565b600082821b905092915050565b600060088302610cd37fffffffffffffffffffffffffffffffffffffffffffffffffffffffffffffffff82610c96565b610cdd8683610c96565b95508019841693508086168417925050509392505050565b6000819050919050565b6000610d1a610d15610d108461068c565b610cf5565b61068c565b9050919050565b6000819050919050565b610d3483610cff565b610d48610d4082610d21565b848454610ca3565b825550505050565b600090565b610d5d610d50565b610d68818484610d2b565b505050565b5b81811015610d8c57610d81600082610d55565b600181019050610d6e565b5050565b601f821115610dd157610da281610c71565b610dab84610c86565b81016020851015610dba578190505b610dce610dc685610c86565b830182610d6d565b50505b505050565b600082821c905092915050565b6000610df460001984600802610dd6565b1980831691505092915050565b6000610e0d8383610de3565b9150826002028217905092915050565b610e26826107bf565b67ffffffffffffffff811115610e3f57610e3e6108fa565b5b610e498254610bc9565b610e54828285610d90565b600060209050601f831160018114610e875760008415610e75578287015190505b610e7f8582610e01565b865550610ee7565b601f198416610e9586610c71565b60005b82811015610ebd57848901518255600182019150602085019450602081019050610e98565b86831015610eda5784890151610ed6601f891682610de3565b8355505b6001600288020188555050505b505050505050565b600060e0820190508181036000830152610f09818a610816565b9050610f1860208301896107b0565b8181036040830152610f2a8188610816565b90508181036060830152610f3e8187610816565b90508181036080830152610f528186610816565b905081810360a0830152610f668185610816565b9050610f7560c0830184610786565b9897505050505050505056fea2646970667358221220823d8ef9c8c1e6d26326fbad449c621e110aa33c169aabc225fb96b5ef362b3964736f6c63430008100033",
  "immutableReferences": {},
  "source": "// SPDX-License-Identifier: GPL-3.0\npragma solidity >=0.7.0 <0.9.0;\n\ncontract PatientManagement {\n\n   event votedEvent(uint indexed _candidateId);\n   event PatientAdded(\n       uint indexed id,\n       string name,\n       uint age,\n       string gender,\n       string vaccine_status,\n       string district,\n       string symptoms_details,\n       bool is_dead\n   );\n\n   // model a candidate\n   struct Patient{\n       uint id;\n       string name;\n       uint age;\n       string gender;\n       string vaccine_status;\n       string district;\n       string symptoms_details;\n       bool is_dead;\n   }\n\n   // Store accounts that have voted\n   mapping( address => bool ) public admins;\n\n   mapping( uint => Patient ) public patients;\n\n   // store candidates count\n   uint public patientsCount=0;\n\n   // adding candidates\n   function addPatient(string memory _name, uint _age ,string memory _gender,string memory _vaccine_status,string memory _district,string memory _symptoms_details,bool _is_dead) public {\n       patientsCount++;\n       patients[patientsCount] = Patient(patientsCount, _name,_age, _gender, _vaccine_status, _district, _symptoms_details, _is_dead);\n       emit PatientAdded(patientsCount, _name, _age, _gender, _vaccine_status, _district, _symptoms_details, _is_dead);\n   }\n\n   // cast vote\n   function makeAdmin(uint _candidateId) public {\n       // require that the current voter haven't voted before\n       require(!admins[msg.sender]);\n       /// emit the event\n       emit votedEvent(_candidateId);\n\n       // record voters vote\n       admins[msg.sender] = true;\n   }\n}\n\n",
  "sourcePath": "/home/ubuntu/Desktop/election (copy)/contracts/PatientManagement.sol",
  "compiler": {
    "name": "solc",
    "version": "0.8.16+commit.07a7930e.Emscripten.clang"
  },
  "schemaVersion": "3.4.16",
  "updatedAt": "2024-04-12T12:59:40.328Z",
  "networkType": "ethereum",
  "devdoc": {
    "kind": "dev",
    "methods": {},
    "version": 1
  },
  "userdoc": {
    "kind": "user",
    "methods": {},
    "version": 1
  }
}