{
  "contractName": "PatientManagement",
  "abi": [
    {
      "anonymous": false,
      "inputs": [
        {
          "indexed": true,
          "internalType": "uint256",
          "name": "id",
          "type": "uint256"
        },
        {
          "indexed": false,
          "internalType": "string",
          "name": "name",
          "type": "string"
        },
        {
          "indexed": false,
          "internalType": "uint256",
          "name": "age",
          "type": "uint256"
        },
        {
          "indexed": false,
          "internalType": "string",
          "name": "gender",
          "type": "string"
        },
        {
          "indexed": false,
          "internalType": "string",
          "name": "vaccine_status",
          "type": "string"
        },
        {
          "indexed": false,
          "internalType": "string",
          "name": "district",
          "type": "string"
        },
        {
          "indexed": false,
          "internalType": "string",
          "name": "symptoms_details",
          "type": "string"
        },
        {
          "indexed": false,
          "internalType": "bool",
          "name": "is_dead",
          "type": "bool"
        }
      ],
      "name": "PatientAdded",
      "type": "event"
    },
    {
      "anonymous": false,
      "inputs": [
        {
          "indexed": true,
          "internalType": "uint256",
          "name": "_candidateId",
          "type": "uint256"
        }
      ],
      "name": "votedEvent",
      "type": "event"
    },
    {
      "inputs": [
        {
          "internalType": "address",
          "name": "",
          "type": "address"
        }
      ],
      "name": "admins",
      "outputs": [
        {
          "internalType": "bool",
          "name": "",
          "type": "bool"
        }
      ],
      "stateMutability": "view",
      "type": "function",
      "constant": true
    },
    {
      "inputs": [
        {
          "internalType": "string",
          "name": "",
          "type": "string"
        }
      ],
      "name": "districtStats",
      "outputs": [
        {
          "internalType": "uint256",
          "name": "totalPatients",
          "type": "uint256"
        },
        {
          "internalType": "uint256",
          "name": "totalDeaths",
          "type": "uint256"
        },
        {
          "internalType": "uint256",
          "name": "totalAge",
          "type": "uint256"
        },
        {
          "internalType": "uint256",
          "name": "childCount",
          "type": "uint256"
        },
        {
          "internalType": "uint256",
          "name": "teenCount",
          "type": "uint256"
        },
        {
          "internalType": "uint256",
          "name": "youthCount",
          "type": "uint256"
        },
        {
          "internalType": "uint256",
          "name": "elderCount",
          "type": "uint256"
        }
      ],
      "stateMutability": "view",
      "type": "function",
      "constant": true
    },
    {
      "inputs": [
        {
          "internalType": "uint256",
          "name": "",
          "type": "uint256"
        }
      ],
      "name": "patients",
      "outputs": [
        {
          "internalType": "uint256",
          "name": "id",
          "type": "uint256"
        },
        {
          "internalType": "string",
          "name": "name",
          "type": "string"
        },
        {
          "internalType": "uint256",
          "name": "age",
          "type": "uint256"
        },
        {
          "internalType": "string",
          "name": "gender",
          "type": "string"
        },
        {
          "internalType": "string",
          "name": "vaccine_status",
          "type": "string"
        },
        {
          "internalType": "string",
          "name": "district",
          "type": "string"
        },
        {
          "internalType": "string",
          "name": "symptoms_details",
          "type": "string"
        },
        {
          "internalType": "bool",
          "name": "is_dead",
          "type": "bool"
        }
      ],
      "stateMutability": "view",
      "type": "function",
      "constant": true
    },
    {
      "inputs": [],
      "name": "patientsCount",
      "outputs": [
        {
          "internalType": "uint256",
          "name": "",
          "type": "uint256"
        }
      ],
      "stateMutability": "view",
      "type": "function",
      "constant": true
    },
    {
      "inputs": [
        {
          "internalType": "string",
          "name": "_name",
          "type": "string"
        },
        {
          "internalType": "uint256",
          "name": "_age",
          "type": "uint256"
        },
        {
          "internalType": "string",
          "name": "_gender",
          "type": "string"
        },
        {
          "internalType": "string",
          "name": "_vaccine_status",
          "type": "string"
        },
        {
          "internalType": "string",
          "name": "_district",
          "type": "string"
        },
        {
          "internalType": "string",
          "name": "_symptoms_details",
          "type": "string"
        },
        {
          "internalType": "bool",
          "name": "_is_dead",
          "type": "bool"
        }
      ],
      "name": "addPatient",
      "outputs": [],
      "stateMutability": "nonpayable",
      "type": "function"
    },
    {
      "inputs": [
        {
          "internalType": "uint256",
          "name": "_candidateId",
          "type": "uint256"
        }
      ],
      "name": "makeAdmin",
      "outputs": [],
      "stateMutability": "nonpayable",
      "type": "function"
    },
    {
      "inputs": [
        {
          "internalType": "uint256",
          "name": "_id",
          "type": "uint256"
        },
        {
          "internalType": "string",
          "name": "_vaccine_status",
          "type": "string"
        }
      ],
      "name": "updateVaccine",
      "outputs": [],
      "stateMutability": "nonpayable",
      "type": "function"
    },
    {
      "inputs": [
        {
          "internalType": "uint256",
          "name": "_id",
          "type": "uint256"
        },
        {
          "internalType": "bool",
          "name": "_is_dead",
          "type": "bool"
        }
      ],
      "name": "updateDeath",
      "outputs": [],
      "stateMutability": "nonpayable",
      "type": "function"
    },
    {
      "inputs": [],
      "name": "getCovidTrend",
      "outputs": [
        {
          "internalType": "uint256",
          "name": "",
          "type": "uint256"
        },
        {
          "internalType": "string",
          "name": "",
          "type": "string"
        },
        {
          "internalType": "uint256",
          "name": "",
          "type": "uint256"
        },
        {
          "internalType": "uint256",
          "name": "",
          "type": "uint256"
        },
        {
          "internalType": "uint256",
          "name": "",
          "type": "uint256"
        },
        {
          "internalType": "uint256",
          "name": "",
          "type": "uint256"
        },
        {
          "internalType": "uint256",
          "name": "",
          "type": "uint256"
        }
      ],
      "stateMutability": "view",
      "type": "function",
      "constant": true
    }
  ],
  "bytecode": "0x6080604052600060025534801561001557600080fd5b50611ddd806100256000396000f3fe608060405234801561001057600080fd5b50600436106100935760003560e01c8063af21961811610066578063af21961814610137578063b4536e5d1461016d578063b6b1289d14610189578063bfa17833146101a7578063d41fe5fa146101c357610093565b806340e9009c14610098578063429b62e5146100b457806393119a83146100e4578063a7da4f7a1461011b575b600080fd5b6100b260048036038101906100ad9190610f7b565b6101e7565b005b6100ce60048036038101906100c99190611006565b6102c4565b6040516100db919061104e565b60405180910390f35b6100fe60048036038101906100f99190610f7b565b6102e4565b604051610112989796959493929190611108565b60405180910390f35b6101356004803603810190610130919061130a565b6105e1565b005b610151600480360381019061014c9190611438565b610750565b6040516101649796959493929190611481565b60405180910390f35b610187600480360381019061018291906114f0565b6107a8565b005b610191610963565b60405161019e9190611530565b60405180910390f35b6101c160048036038101906101bc919061154b565b610969565b005b6101cb610a23565b6040516101de97969594939291906115a7565b60405180910390f35b6000803373ffffffffffffffffffffffffffffffffffffffff1673ffffffffffffffffffffffffffffffffffffffff16815260200190815260200160002060009054906101000a900460ff161561023d57600080fd5b807ffff3c900d938d21d0990d786e819f29b8d05c1ef587b462b939609625b684b1660405160405180910390a260016000803373ffffffffffffffffffffffffffffffffffffffff1673ffffffffffffffffffffffffffffffffffffffff16815260200190815260200160002060006101000a81548160ff02191690831515021790555050565b60006020528060005260406000206000915054906101000a900460ff1681565b600160205280600052604060002060009150905080600001549080600101805461030d9061164c565b80601f01602080910402602001604051908101604052809291908181526020018280546103399061164c565b80156103865780601f1061035b57610100808354040283529160200191610386565b820191906000526020600020905b81548152906001019060200180831161036957829003601f168201915b5050505050908060020154908060030180546103a19061164c565b80601f01602080910402602001604051908101604052809291908181526020018280546103cd9061164c565b801561041a5780601f106103ef5761010080835404028352916020019161041a565b820191906000526020600020905b8154815290600101906020018083116103fd57829003601f168201915b50505050509080600401805461042f9061164c565b80601f016020809104026020016040519081016040528092919081815260200182805461045b9061164c565b80156104a85780601f1061047d576101008083540402835291602001916104a8565b820191906000526020600020905b81548152906001019060200180831161048b57829003601f168201915b5050505050908060050180546104bd9061164c565b80601f01602080910402602001604051908101604052809291908181526020018280546104e99061164c565b80156105365780601f1061050b57610100808354040283529160200191610536565b820191906000526020600020905b81548152906001019060200180831161051957829003601f168201915b50505050509080600601805461054b9061164c565b80601f01602080910402602001604051908101604052809291908181526020018280546105779061164c565b80156105c45780601f10610599576101008083540402835291602001916105c4565b820191906000526020600020905b8154815290600101906020018083116105a757829003601f168201915b5050505050908060070160009054906101000a900460ff16905088565b600260008154809291906105f4906116ac565b9190505550604051806101000160405280600254815260200188815260200187815260200186815260200185815260200184815260200183815260200182151581525060016000600254815260200190815260200160002060008201518160000155602082015181600101908161066b91906118a0565b5060408201518160020155606082015181600301908161068b91906118a0565b5060808201518160040190816106a191906118a0565b5060a08201518160050190816106b791906118a0565b5060c08201518160060190816106cd91906118a0565b5060e08201518160070160006101000a81548160ff0219169083151502179055509050506002547f14114d2ffb1c6b656f341bcbed3f8a6dc98be98c71e1c7bf30fe9324af0b97a58888888888888860405161072f9796959493929190611972565b60405180910390a26107476002548785846001610ca9565b50505050505050565b6003818051602081018201805184825260208301602085012081835280955050505050506000915090508060000154908060010154908060020154908060030154908060040154908060050154908060060154905087565b600115156000803373ffffffffffffffffffffffffffffffffffffffff1673ffffffffffffffffffffffffffffffffffffffff16815260200190815260200160002060009054906101000a900460ff1615151461083a576040517f08c379a000000000000000000000000000000000000000000000000000000000815260040161083190611a50565b60405180910390fd5b60006001600084815260200190815260200160002060070160009054906101000a900460ff169050816001600085815260200190815260200160002060070160006101000a81548160ff0219169083151502179055508115158115151461095e5761095d8360016000868152602001908152602001600020600201546001600087815260200190815260200160002060050180546108d79061164c565b80601f01602080910402602001604051908101604052809291908181526020018280546109039061164c565b80156109505780601f1061092557610100808354040283529160200191610950565b820191906000526020600020905b81548152906001019060200180831161093357829003601f168201915b5050505050858615610ca9565b5b505050565b60025481565b600115156000803373ffffffffffffffffffffffffffffffffffffffff1673ffffffffffffffffffffffffffffffffffffffff16815260200190815260200160002060009054906101000a900460ff161515146109fb576040517f08c379a00000000000000000000000000000000000000000000000000000000081526004016109f290611a50565b60405180910390fd5b80600160008481526020019081526020016000206004019081610a1e91906118a0565b505050565b600060606000806000806000806000806000806000806000600190505b6002548111610aa2578780610a54906116ac565b9850506001600082815260200190815260200160002060070160009054906101000a900460ff1615610a8f578680610a8b906116ac565b9750505b8080610a9a906116ac565b915050610a40565b5060008767ffffffffffffffff811115610abf57610abe6111b3565b5b604051908082528060200260200182016040528015610aed5781602001602082028036833780820191505090505b509050600080600190505b6002548111610b58576001600082815260200190815260200160002060020154838381518110610b2b57610b2a611a70565b5b6020026020010181815250508180610b42906116ac565b9250508080610b50906116ac565b915050610af8565b50610b6282610e2b565b96508860646003604051610b7590611af6565b908152602001604051809103902060030154610b919190611b0b565b610b9b9190611b94565b95508860646003604051610bae90611af6565b908152602001604051809103902060040154610bca9190611b0b565b610bd49190611b94565b94508860646003604051610be790611af6565b908152602001604051809103902060050154610c039190611b0b565b610c0d9190611b94565b93508860646003604051610c2090611af6565b908152602001604051809103902060060154610c3c9190611b0b565b610c469190611b94565b92508787878787876040518060400160405280600581526020017f546f74616c00000000000000000000000000000000000000000000000000000081525094939291909f509f509f509f509f509f509f5050505050505050505090919293949596565b6000600384604051610cbb9190611bf6565b908152602001604051809103902090508115610cf057806000016000815480929190610ce6906116ac565b9190505550610d52565b6000816000015411610d37576040517f08c379a0000000000000000000000000000000000000000000000000000000008152600401610d2e90611c59565b60405180910390fd5b806000016000815480929190610d4c90611c79565b91905055505b84816002016000828254610d669190611ca2565b925050819055508215610d8e57806001016000815480929190610d88906116ac565b91905055505b600d851015610db657806003016000815480929190610dac906116ac565b9190505550610e23565b6014851015610dde57806004016000815480929190610dd4906116ac565b9190505550610e22565b6032851015610e0657806005016000815480929190610dfc906116ac565b9190505550610e21565b806006016000815480929190610e1b906116ac565b91905055505b5b5b505050505050565b6000808251905060008111610e75576040517f08c379a0000000000000000000000000000000000000000000000000000000008152600401610e6c90611d22565b60405180910390fd5b6000600282610e849190611d42565b03610f0157600283600283610e999190611b94565b81518110610eaa57610ea9611a70565b5b6020026020010151846001600285610ec29190611b94565b610ecc9190611d73565b81518110610edd57610edc611a70565b5b6020026020010151610eef9190611ca2565b610ef99190611b94565b915050610f2c565b82600282610f0f9190611b94565b81518110610f2057610f1f611a70565b5b60200260200101519150505b919050565b6000604051905090565b600080fd5b600080fd5b6000819050919050565b610f5881610f45565b8114610f6357600080fd5b50565b600081359050610f7581610f4f565b92915050565b600060208284031215610f9157610f90610f3b565b5b6000610f9f84828501610f66565b91505092915050565b600073ffffffffffffffffffffffffffffffffffffffff82169050919050565b6000610fd382610fa8565b9050919050565b610fe381610fc8565b8114610fee57600080fd5b50565b60008135905061100081610fda565b92915050565b60006020828403121561101c5761101b610f3b565b5b600061102a84828501610ff1565b91505092915050565b60008115159050919050565b61104881611033565b82525050565b6000602082019050611063600083018461103f565b92915050565b61107281610f45565b82525050565b600081519050919050565b600082825260208201905092915050565b60005b838110156110b2578082015181840152602081019050611097565b60008484015250505050565b6000601f19601f8301169050919050565b60006110da82611078565b6110e48185611083565b93506110f4818560208601611094565b6110fd816110be565b840191505092915050565b60006101008201905061111e600083018b611069565b8181036020830152611130818a6110cf565b905061113f6040830189611069565b818103606083015261115181886110cf565b9050818103608083015261116581876110cf565b905081810360a083015261117981866110cf565b905081810360c083015261118d81856110cf565b905061119c60e083018461103f565b9998505050505050505050565b600080fd5b600080fd5b7f4e487b7100000000000000000000000000000000000000000000000000000000600052604160045260246000fd5b6111eb826110be565b810181811067ffffffffffffffff8211171561120a576112096111b3565b5b80604052505050565b600061121d610f31565b905061122982826111e2565b919050565b600067ffffffffffffffff821115611249576112486111b3565b5b611252826110be565b9050602081019050919050565b82818337600083830152505050565b600061128161127c8461122e565b611213565b90508281526020810184848401111561129d5761129c6111ae565b5b6112a884828561125f565b509392505050565b600082601f8301126112c5576112c46111a9565b5b81356112d584826020860161126e565b91505092915050565b6112e781611033565b81146112f257600080fd5b50565b600081359050611304816112de565b92915050565b600080600080600080600060e0888a03121561132957611328610f3b565b5b600088013567ffffffffffffffff81111561134757611346610f40565b5b6113538a828b016112b0565b97505060206113648a828b01610f66565b965050604088013567ffffffffffffffff81111561138557611384610f40565b5b6113918a828b016112b0565b955050606088013567ffffffffffffffff8111156113b2576113b1610f40565b5b6113be8a828b016112b0565b945050608088013567ffffffffffffffff8111156113df576113de610f40565b5b6113eb8a828b016112b0565b93505060a088013567ffffffffffffffff81111561140c5761140b610f40565b5b6114188a828b016112b0565b92505060c06114298a828b016112f5565b91505092959891949750929550565b60006020828403121561144e5761144d610f3b565b5b600082013567ffffffffffffffff81111561146c5761146b610f40565b5b611478848285016112b0565b91505092915050565b600060e082019050611496600083018a611069565b6114a36020830189611069565b6114b06040830188611069565b6114bd6060830187611069565b6114ca6080830186611069565b6114d760a0830185611069565b6114e460c0830184611069565b98975050505050505050565b6000806040838503121561150757611506610f3b565b5b600061151585828601610f66565b9250506020611526858286016112f5565b9150509250929050565b60006020820190506115456000830184611069565b92915050565b6000806040838503121561156257611561610f3b565b5b600061157085828601610f66565b925050602083013567ffffffffffffffff81111561159157611590610f40565b5b61159d858286016112b0565b9150509250929050565b600060e0820190506115bc600083018a611069565b81810360208301526115ce81896110cf565b90506115dd6040830188611069565b6115ea6060830187611069565b6115f76080830186611069565b61160460a0830185611069565b61161160c0830184611069565b98975050505050505050565b7f4e487b7100000000000000000000000000000000000000000000000000000000600052602260045260246000fd5b6000600282049050600182168061166457607f821691505b6020821081036116775761167661161d565b5b50919050565b7f4e487b7100000000000000000000000000000000000000000000000000000000600052601160045260246000fd5b60006116b782610f45565b91507fffffffffffffffffffffffffffffffffffffffffffffffffffffffffffffffff82036116e9576116e861167d565b5b600182019050919050565b60008190508160005260206000209050919050565b60006020601f8301049050919050565b600082821b905092915050565b6000600883026117567fffffffffffffffffffffffffffffffffffffffffffffffffffffffffffffffff82611719565b6117608683611719565b95508019841693508086168417925050509392505050565b6000819050919050565b600061179d61179861179384610f45565b611778565b610f45565b9050919050565b6000819050919050565b6117b783611782565b6117cb6117c3826117a4565b848454611726565b825550505050565b600090565b6117e06117d3565b6117eb8184846117ae565b505050565b5b8181101561180f576118046000826117d8565b6001810190506117f1565b5050565b601f82111561185457611825816116f4565b61182e84611709565b8101602085101561183d578190505b61185161184985611709565b8301826117f0565b50505b505050565b600082821c905092915050565b600061187760001984600802611859565b1980831691505092915050565b60006118908383611866565b9150826002028217905092915050565b6118a982611078565b67ffffffffffffffff8111156118c2576118c16111b3565b5b6118cc825461164c565b6118d7828285611813565b600060209050601f83116001811461190a57600084156118f8578287015190505b6119028582611884565b86555061196a565b601f198416611918866116f4565b60005b828110156119405784890151825560018201915060208501945060208101905061191b565b8683101561195d5784890151611959601f891682611866565b8355505b6001600288020188555050505b505050505050565b600060e082019050818103600083015261198c818a6110cf565b905061199b6020830189611069565b81810360408301526119ad81886110cf565b905081810360608301526119c181876110cf565b905081810360808301526119d581866110cf565b905081810360a08301526119e981856110cf565b90506119f860c083018461103f565b98975050505050505050565b7f53656e646572206973206e6f7420616e2041646d696e00000000000000000000600082015250565b6000611a3a601683611083565b9150611a4582611a04565b602082019050919050565b60006020820190508181036000830152611a6981611a2d565b9050919050565b7f4e487b7100000000000000000000000000000000000000000000000000000000600052603260045260246000fd5b600081905092915050565b7f546f74616c000000000000000000000000000000000000000000000000000000600082015250565b6000611ae0600583611a9f565b9150611aeb82611aaa565b600582019050919050565b6000611b0182611ad3565b9150819050919050565b6000611b1682610f45565b9150611b2183610f45565b9250817fffffffffffffffffffffffffffffffffffffffffffffffffffffffffffffffff0483118215151615611b5a57611b5961167d565b5b828202905092915050565b7f4e487b7100000000000000000000000000000000000000000000000000000000600052601260045260246000fd5b6000611b9f82610f45565b9150611baa83610f45565b925082611bba57611bb9611b65565b5b828204905092915050565b6000611bd082611078565b611bda8185611a9f565b9350611bea818560208601611094565b80840191505092915050565b6000611c028284611bc5565b915081905092915050565b7f4e6f2070617469656e747320696e207468697320646973747269637400000000600082015250565b6000611c43601c83611083565b9150611c4e82611c0d565b602082019050919050565b60006020820190508181036000830152611c7281611c36565b9050919050565b6000611c8482610f45565b915060008203611c9757611c9661167d565b5b600182039050919050565b6000611cad82610f45565b9150611cb883610f45565b9250828201905080821115611cd057611ccf61167d565b5b92915050565b7f456d707479206172726179000000000000000000000000000000000000000000600082015250565b6000611d0c600b83611083565b9150611d1782611cd6565b602082019050919050565b60006020820190508181036000830152611d3b81611cff565b9050919050565b6000611d4d82610f45565b9150611d5883610f45565b925082611d6857611d67611b65565b5b828206905092915050565b6000611d7e82610f45565b9150611d8983610f45565b9250828203905081811115611da157611da061167d565b5b9291505056fea26469706673582212207182364ce7867d6920f5277ffdacfb8749435378d47aaa126354f9851b92479664736f6c63430008100033",
  "immutableReferences": {},
  "source": "// SPDX-License-Identifier: GPL-3.0\npragma solidity >=0.7.0 <0.9.0;\n\ncontract PatientManagement {\n\n\n\n   event votedEvent(uint indexed _candidateId);\n   event PatientAdded(\n       uint indexed id,\n       string name,\n       uint age,\n       string gender,\n       string vaccine_status,\n       string district,\n       string symptoms_details,\n       bool is_dead\n   );\n\n   // model a candidate\n   struct Patient{\n       uint id;\n       string name;\n       uint age;\n       string gender;\n       string vaccine_status;\n       string district;\n       string symptoms_details;\n       bool is_dead;\n   }\n\n   // Store accounts that have voted\n   mapping( address => bool ) public admins;\n\n   mapping( uint => Patient ) public patients;\n\n   // store candidates count\n   uint public patientsCount=0;\n   \n// Structure to hold district-wise patient statistics\n    struct DistrictStats {\n        uint totalPatients;\n        uint totalDeaths;\n        uint totalAge;\n        uint childCount;\n        uint teenCount;\n        uint youthCount;\n        uint elderCount;\n    }\n\n    // Mapping to store district-wise statistics\n    mapping(string => DistrictStats) public districtStats;\n\n    // Function to update Covid trend statistics\n    function updateCovidTrend(uint _id, uint _age, string memory _district, bool _is_dead, bool isAddition) internal {\n        DistrictStats storage stats = districtStats[_district];\n        \n        // Increment or decrement totalPatients\n        if (isAddition) {\n            stats.totalPatients++;\n        } else {\n            require(stats.totalPatients > 0, \"No patients in this district\");\n            stats.totalPatients--;\n        }\n        \n        // Update totalAge\n        stats.totalAge += _age;\n\n        // Update death count\n        if (_is_dead) {\n            stats.totalDeaths++;\n        }\n\n        // Update age group counts\n        if (_age < 13) {\n            stats.childCount++;\n        } else if (_age < 20) {\n            stats.teenCount++;\n        } else if (_age < 50) {\n            stats.youthCount++;\n        } else {\n            stats.elderCount++;\n        }\n    }\n   \n   \n   \n   \n   \n   \n   \n\n   // adding candidates\n   function addPatient(string memory _name, uint _age ,string memory _gender,string memory _vaccine_status,string memory _district,string memory _symptoms_details,bool _is_dead) public {\n       patientsCount++;\n       patients[patientsCount] = Patient(patientsCount, _name,_age, _gender, _vaccine_status, _district, _symptoms_details, _is_dead);\n       emit PatientAdded(patientsCount, _name, _age, _gender, _vaccine_status, _district, _symptoms_details, _is_dead);\n       \n        // Update Covid trend statistics\n        updateCovidTrend(patientsCount, _age, _district, _is_dead, true);\n   }\n\n   // cast vote\n   function makeAdmin(uint _candidateId) public {\n       // require that the current voter haven't voted before\n       require(!admins[msg.sender]);\n       /// emit the event\n       emit votedEvent(_candidateId);\n\n       // record voters vote\n       admins[msg.sender] = true;\n   }\n   \n     modifier senderIsAdmin {\n    require(admins[msg.sender] == true, \"Sender is not an Admin\");\n    _;\n  }\n  \n     function updateVaccine(uint _id, string memory _vaccine_status) public senderIsAdmin {\n   \n       patients[_id].vaccine_status = _vaccine_status;\n       \n   }\n   \n   \n   \n   \n   \n   \n   \n   \nfunction updateDeath(uint _id, bool _is_dead) public senderIsAdmin {\n        bool currentDeathStatus = patients[_id].is_dead;\n        \n        // Update patient death status\n        patients[_id].is_dead = _is_dead;\n        \n        // Update Covid trend statistics only if death status changes\n        if (currentDeathStatus != _is_dead) {\n            updateCovidTrend(_id, patients[_id].age, patients[_id].district, _is_dead, !_is_dead);\n        }\n    }\n    \n    \n    \n    // Function to get Covid trend statistics\n    function getCovidTrend() public view returns (uint, string memory, uint, uint, uint, uint, uint) {\n        uint totalPatients;\n        uint totalDeaths;\n        uint medianAge;\n        uint childPercent;\n        uint teenPercent;\n        uint youthPercent;\n        uint elderPercent;\n\n        // Calculate combined totalPatients and totalDeaths across all districts\n        for (uint i = 1; i <= patientsCount; i++) {\n            totalPatients++;\n            if (patients[i].is_dead) {\n                totalDeaths++;\n            }\n        }\n\n        // Calculate median age\n        uint[] memory ages = new uint[](totalPatients);\n        uint idx = 0;\n        for (uint i = 1; i <= patientsCount; i++) {\n            ages[idx] = patients[i].age;\n            idx++;\n        }\n        medianAge = calculateMedian(ages);\n\n        // Calculate percentage of age groups\n        childPercent = (districtStats[\"Total\"].childCount * 100) / totalPatients;\n        teenPercent = (districtStats[\"Total\"].teenCount * 100) / totalPatients;\n        youthPercent = (districtStats[\"Total\"].youthCount * 100) / totalPatients;\n        elderPercent = (districtStats[\"Total\"].elderCount * 100) / totalPatients;\n\n        return (totalDeaths, \"Total\", medianAge, childPercent, teenPercent, youthPercent, elderPercent);\n    }\n\n    // Function to calculate median\n    function calculateMedian(uint[] memory values) internal pure returns (uint) {\n        uint n = values.length;\n        require(n > 0, \"Empty array\");\n        if (n % 2 == 0) {\n            return (values[n / 2 - 1] + values[n / 2]) / 2;\n        } else {\n            return values[n / 2];\n        }\n    }\n\n}\n\n",
  "sourcePath": "/home/ubuntu/Desktop/election (copy)/contracts/PatientManagement.sol",
  "compiler": {
    "name": "solc",
    "version": "0.8.16+commit.07a7930e.Emscripten.clang"
  },
  "schemaVersion": "3.4.16",
  "updatedAt": "2024-04-13T07:20:54.273Z",
  "networkType": "ethereum",
  "devdoc": {
    "kind": "dev",
    "methods": {},
    "version": 1
  },
  "userdoc": {
    "kind": "user",
    "methods": {},
    "version": 1
  }
}