{
  "contractName": "PatientManagement",
  "abi": [
    {
      "anonymous": false,
      "inputs": [
        {
          "indexed": true,
          "internalType": "uint256",
          "name": "id",
          "type": "uint256"
        },
        {
          "indexed": false,
          "internalType": "string",
          "name": "name",
          "type": "string"
        },
        {
          "indexed": false,
          "internalType": "uint256",
          "name": "age",
          "type": "uint256"
        },
        {
          "indexed": false,
          "internalType": "string",
          "name": "gender",
          "type": "string"
        },
        {
          "indexed": false,
          "internalType": "string",
          "name": "vaccine_status",
          "type": "string"
        },
        {
          "indexed": false,
          "internalType": "string",
          "name": "district",
          "type": "string"
        },
        {
          "indexed": false,
          "internalType": "string",
          "name": "symptoms_details",
          "type": "string"
        },
        {
          "indexed": false,
          "internalType": "bool",
          "name": "is_dead",
          "type": "bool"
        }
      ],
      "name": "PatientAdded",
      "type": "event"
    },
    {
      "anonymous": false,
      "inputs": [
        {
          "indexed": true,
          "internalType": "uint256",
          "name": "id",
          "type": "uint256"
        },
        {
          "indexed": false,
          "internalType": "string",
          "name": "name",
          "type": "string"
        },
        {
          "indexed": false,
          "internalType": "string",
          "name": "district",
          "type": "string"
        },
        {
          "indexed": false,
          "internalType": "bool",
          "name": "is_dead",
          "type": "bool"
        }
      ],
      "name": "PatientAddedWithDeath",
      "type": "event"
    },
    {
      "anonymous": false,
      "inputs": [
        {
          "indexed": true,
          "internalType": "uint256",
          "name": "_candidateId",
          "type": "uint256"
        }
      ],
      "name": "votedEvent",
      "type": "event"
    },
    {
      "inputs": [
        {
          "internalType": "address",
          "name": "",
          "type": "address"
        }
      ],
      "name": "admins",
      "outputs": [
        {
          "internalType": "bool",
          "name": "",
          "type": "bool"
        }
      ],
      "stateMutability": "view",
      "type": "function",
      "constant": true
    },
    {
      "inputs": [
        {
          "internalType": "string",
          "name": "",
          "type": "string"
        }
      ],
      "name": "districtDeathCounts",
      "outputs": [
        {
          "internalType": "uint256",
          "name": "",
          "type": "uint256"
        }
      ],
      "stateMutability": "view",
      "type": "function",
      "constant": true
    },
    {
      "inputs": [
        {
          "internalType": "string",
          "name": "",
          "type": "string"
        }
      ],
      "name": "districtStats",
      "outputs": [
        {
          "internalType": "uint256",
          "name": "totalPatients",
          "type": "uint256"
        },
        {
          "internalType": "uint256",
          "name": "totalDeaths",
          "type": "uint256"
        },
        {
          "internalType": "uint256",
          "name": "totalAge",
          "type": "uint256"
        },
        {
          "internalType": "uint256",
          "name": "childCount",
          "type": "uint256"
        },
        {
          "internalType": "uint256",
          "name": "teenCount",
          "type": "uint256"
        },
        {
          "internalType": "uint256",
          "name": "youthCount",
          "type": "uint256"
        },
        {
          "internalType": "uint256",
          "name": "elderCount",
          "type": "uint256"
        }
      ],
      "stateMutability": "view",
      "type": "function",
      "constant": true
    },
    {
      "inputs": [
        {
          "internalType": "uint256",
          "name": "",
          "type": "uint256"
        }
      ],
      "name": "districts",
      "outputs": [
        {
          "internalType": "string",
          "name": "",
          "type": "string"
        }
      ],
      "stateMutability": "view",
      "type": "function",
      "constant": true
    },
    {
      "inputs": [
        {
          "internalType": "uint256",
          "name": "",
          "type": "uint256"
        }
      ],
      "name": "patients",
      "outputs": [
        {
          "internalType": "uint256",
          "name": "id",
          "type": "uint256"
        },
        {
          "internalType": "string",
          "name": "name",
          "type": "string"
        },
        {
          "internalType": "uint256",
          "name": "age",
          "type": "uint256"
        },
        {
          "internalType": "string",
          "name": "gender",
          "type": "string"
        },
        {
          "internalType": "string",
          "name": "vaccine_status",
          "type": "string"
        },
        {
          "internalType": "string",
          "name": "district",
          "type": "string"
        },
        {
          "internalType": "string",
          "name": "symptoms_details",
          "type": "string"
        },
        {
          "internalType": "bool",
          "name": "is_dead",
          "type": "bool"
        },
        {
          "internalType": "bool",
          "name": "isDoubleDosed",
          "type": "bool"
        }
      ],
      "stateMutability": "view",
      "type": "function",
      "constant": true
    },
    {
      "inputs": [],
      "name": "patientsCount",
      "outputs": [
        {
          "internalType": "uint256",
          "name": "",
          "type": "uint256"
        }
      ],
      "stateMutability": "view",
      "type": "function",
      "constant": true
    },
    {
      "inputs": [
        {
          "internalType": "string",
          "name": "_name",
          "type": "string"
        },
        {
          "internalType": "uint256",
          "name": "_age",
          "type": "uint256"
        },
        {
          "internalType": "string",
          "name": "_gender",
          "type": "string"
        },
        {
          "internalType": "string",
          "name": "_vaccine_status",
          "type": "string"
        },
        {
          "internalType": "string",
          "name": "_district",
          "type": "string"
        },
        {
          "internalType": "string",
          "name": "_symptoms_details",
          "type": "string"
        },
        {
          "internalType": "bool",
          "name": "_is_dead",
          "type": "bool"
        }
      ],
      "name": "addPatient",
      "outputs": [],
      "stateMutability": "nonpayable",
      "type": "function"
    },
    {
      "inputs": [
        {
          "internalType": "uint256",
          "name": "_candidateId",
          "type": "uint256"
        }
      ],
      "name": "makeAdmin",
      "outputs": [],
      "stateMutability": "nonpayable",
      "type": "function"
    },
    {
      "inputs": [
        {
          "internalType": "uint256",
          "name": "_id",
          "type": "uint256"
        },
        {
          "internalType": "string",
          "name": "_vaccine_status",
          "type": "string"
        }
      ],
      "name": "updateVaccine",
      "outputs": [],
      "stateMutability": "nonpayable",
      "type": "function"
    },
    {
      "inputs": [],
      "name": "getDistrictDeathCounts",
      "outputs": [
        {
          "internalType": "string[]",
          "name": "",
          "type": "string[]"
        },
        {
          "internalType": "uint256[]",
          "name": "",
          "type": "uint256[]"
        }
      ],
      "stateMutability": "view",
      "type": "function",
      "constant": true
    },
    {
      "inputs": [
        {
          "internalType": "uint256",
          "name": "_id",
          "type": "uint256"
        },
        {
          "internalType": "bool",
          "name": "_is_dead",
          "type": "bool"
        }
      ],
      "name": "updateDeath",
      "outputs": [],
      "stateMutability": "nonpayable",
      "type": "function"
    },
    {
      "inputs": [],
      "name": "getCovidTrend",
      "outputs": [
        {
          "internalType": "uint256",
          "name": "",
          "type": "uint256"
        },
        {
          "internalType": "string",
          "name": "",
          "type": "string"
        },
        {
          "internalType": "uint256",
          "name": "",
          "type": "uint256"
        },
        {
          "internalType": "uint256",
          "name": "",
          "type": "uint256"
        },
        {
          "internalType": "uint256",
          "name": "",
          "type": "uint256"
        },
        {
          "internalType": "uint256",
          "name": "",
          "type": "uint256"
        },
        {
          "internalType": "uint256",
          "name": "",
          "type": "uint256"
        }
      ],
      "stateMutability": "view",
      "type": "function",
      "constant": true
    }
  ],
  "bytecode": "0x6080604052600060025534801561001557600080fd5b50612925806100256000396000f3fe608060405234801561001057600080fd5b50600436106100b45760003560e01c8063b4536e5d11610071578063b4536e5d146101bf578063b6b1289d146101db578063bfa17833146101f9578063c1aa4de714610215578063d41fe5fa14610234578063e77995e014610258576100b4565b806328e9a210146100b957806340e9009c146100e9578063429b62e51461010557806393119a8314610135578063a7da4f7a1461016d578063af21961814610189575b600080fd5b6100d360048036038101906100ce91906118a6565b610288565b6040516100e09190611908565b60405180910390f35b61010360048036038101906100fe919061194f565b6102b6565b005b61011f600480360381019061011a91906119da565b610393565b60405161012c9190611a22565b60405180910390f35b61014f600480360381019061014a919061194f565b6103b3565b60405161016499989796959493929190611abc565b60405180910390f35b61018760048036038101906101829190611b98565b6106c3565b005b6101a3600480360381019061019e91906118a6565b6108f3565b6040516101b69796959493929190611cc6565b60405180910390f35b6101d960048036038101906101d49190611d35565b61094b565b005b6101e3610be5565b6040516101f09190611908565b60405180910390f35b610213600480360381019061020e9190611d75565b610beb565b005b61021d610d59565b60405161022b929190611f9b565b60405180910390f35b61023c61104d565b60405161024f9796959493929190611fd2565b60405180910390f35b610272600480360381019061026d919061194f565b6112d3565b60405161027f9190612048565b60405180910390f35b6004818051602081018201805184825260208301602085012081835280955050505050506000915090505481565b6000803373ffffffffffffffffffffffffffffffffffffffff1673ffffffffffffffffffffffffffffffffffffffff16815260200190815260200160002060009054906101000a900460ff161561030c57600080fd5b807ffff3c900d938d21d0990d786e819f29b8d05c1ef587b462b939609625b684b1660405160405180910390a260016000803373ffffffffffffffffffffffffffffffffffffffff1673ffffffffffffffffffffffffffffffffffffffff16815260200190815260200160002060006101000a81548160ff02191690831515021790555050565b60006020528060005260406000206000915054906101000a900460ff1681565b60016020528060005260406000206000915090508060000154908060010180546103dc90612099565b80601f016020809104026020016040519081016040528092919081815260200182805461040890612099565b80156104555780601f1061042a57610100808354040283529160200191610455565b820191906000526020600020905b81548152906001019060200180831161043857829003601f168201915b50505050509080600201549080600301805461047090612099565b80601f016020809104026020016040519081016040528092919081815260200182805461049c90612099565b80156104e95780601f106104be576101008083540402835291602001916104e9565b820191906000526020600020905b8154815290600101906020018083116104cc57829003601f168201915b5050505050908060040180546104fe90612099565b80601f016020809104026020016040519081016040528092919081815260200182805461052a90612099565b80156105775780601f1061054c57610100808354040283529160200191610577565b820191906000526020600020905b81548152906001019060200180831161055a57829003601f168201915b50505050509080600501805461058c90612099565b80601f01602080910402602001604051908101604052809291908181526020018280546105b890612099565b80156106055780601f106105da57610100808354040283529160200191610605565b820191906000526020600020905b8154815290600101906020018083116105e857829003601f168201915b50505050509080600601805461061a90612099565b80601f016020809104026020016040519081016040528092919081815260200182805461064690612099565b80156106935780601f1061066857610100808354040283529160200191610693565b820191906000526020600020905b81548152906001019060200180831161067657829003601f168201915b5050505050908060070160009054906101000a900460ff16908060070160019054906101000a900460ff16905089565b600260008154809291906106d6906120f9565b9190505550600061071c856040518060400160405280600881526020017f74776f5f646f736500000000000000000000000000000000000000000000000081525061137f565b90506040518061012001604052806002548152602001898152602001888152602001878152602001868152602001858152602001848152602001831515815260200182151581525060016000600254815260200190815260200160002060008201518160000155602082015181600101908161079891906122ed565b506040820151816002015560608201518160030190816107b891906122ed565b5060808201518160040190816107ce91906122ed565b5060a08201518160050190816107e491906122ed565b5060c08201518160060190816107fa91906122ed565b5060e08201518160070160006101000a81548160ff0219169083151502179055506101008201518160070160016101000a81548160ff02191690831515021790555090505081156108505761084f84836113d8565b5b6108606002548886856001611417565b61086984611599565b6108a3576005849080600181540180825580915050600190039060005260206000200160009091909190915090816108a191906122ed565b505b6002547f14114d2ffb1c6b656f341bcbed3f8a6dc98be98c71e1c7bf30fe9324af0b97a5898989898989896040516108e197969594939291906123bf565b60405180910390a25050505050505050565b6003818051602081018201805184825260208301602085012081835280955050505050506000915090508060000154908060010154908060020154908060030154908060040154908060050154908060060154905087565b600115156000803373ffffffffffffffffffffffffffffffffffffffff1673ffffffffffffffffffffffffffffffffffffffff16815260200190815260200160002060009054906101000a900460ff161515146109dd576040517f08c379a00000000000000000000000000000000000000000000000000000000081526004016109d49061249d565b60405180910390fd5b60006001600084815260200190815260200160002060070160009054906101000a900460ff169050816001600085815260200190815260200160002060070160006101000a81548160ff0219169083151502179055506000600160008581526020019081526020016000206005018054610a5690612099565b80601f0160208091040260200160405190810160405280929190818152602001828054610a8290612099565b8015610acf5780601f10610aa457610100808354040283529160200191610acf565b820191906000526020600020905b815481529060010190602001808311610ab257829003601f168201915b5050505050905082151582151514610bdf578215610b1c57600481604051610af791906124f9565b90815260200160405180910390206000815480929190610b16906120f9565b91905055505b610bde846001600087815260200190815260200160002060020154600160008881526020019081526020016000206005018054610b5890612099565b80601f0160208091040260200160405190810160405280929190818152602001828054610b8490612099565b8015610bd15780601f10610ba657610100808354040283529160200191610bd1565b820191906000526020600020905b815481529060010190602001808311610bb457829003601f168201915b5050505050868715611417565b5b50505050565b60025481565b600115156000803373ffffffffffffffffffffffffffffffffffffffff1673ffffffffffffffffffffffffffffffffffffffff16815260200190815260200160002060009054906101000a900460ff16151514610c7d576040517f08c379a0000000000000000000000000000000000000000000000000000000008152600401610c749061249d565b60405180910390fd5b80600160008481526020019081526020016000206004019081610ca091906122ed565b50604051602001610cb09061255c565b6040516020818303038152906040528051906020012081604051602001610cd791906124f9565b6040516020818303038152906040528051906020012003610d2557600180600084815260200190815260200160002060070160016101000a81548160ff021916908315150217905550610d55565b60006001600084815260200190815260200160002060070160016101000a81548160ff0219169083151502179055505b5050565b6060806000600580549050905060008167ffffffffffffffff811115610d8257610d8161177b565b5b604051908082528060200260200182016040528015610db05781602001602082028036833780820191505090505b50905060008267ffffffffffffffff811115610dcf57610dce61177b565b5b604051908082528060200260200182016040528015610e0257816020015b6060815260200190600190039081610ded5790505b50905060008060005b85811015610f6057600060058281548110610e2957610e28612571565b5b906000526020600020018054610e3e90612099565b80601f0160208091040260200160405190810160405280929190818152602001828054610e6a90612099565b8015610eb75780601f10610e8c57610100808354040283529160200191610eb7565b820191906000526020600020905b815481529060010190602001808311610e9a57829003601f168201915b505050505090506000600482604051610ed091906124f9565b908152602001604051809103902054905080878481518110610ef557610ef4612571565b5b60200260200101818152505081868481518110610f1557610f14612571565b5b602002602001018190525084811115610f345780945060019350610f4b565b848103610f4a578380610f46906120f9565b9450505b5b50508080610f58906120f9565b915050610e0b565b5060008167ffffffffffffffff811115610f7d57610f7c61177b565b5b604051908082528060200260200182016040528015610fb057816020015b6060815260200190600190039081610f9b5790505b5090506000805b8781101561103b5784878281518110610fd357610fd2612571565b5b60200260200101510361102857858181518110610ff357610ff2612571565b5b602002602001015183838151811061100e5761100d612571565b5b60200260200101819052508180611024906120f9565b9250505b8080611033906120f9565b915050610fb7565b50818698509850505050505050509091565b600060606000806000806000806000806000806000806000600190505b60025481116110cc57878061107e906120f9565b9850506001600082815260200190815260200160002060070160009054906101000a900460ff16156110b95786806110b5906120f9565b9750505b80806110c4906120f9565b91505061106a565b5060008767ffffffffffffffff8111156110e9576110e861177b565b5b6040519080825280602002602001820160405280156111175781602001602082028036833780820191505090505b509050600080600190505b600254811161118257600160008281526020019081526020016000206002015483838151811061115557611154612571565b5b602002602001018181525050818061116c906120f9565b925050808061117a906120f9565b915050611122565b5061118c82611646565b9650886064600360405161119f906125ec565b9081526020016040518091039020600301546111bb9190612601565b6111c5919061268a565b955088606460036040516111d8906125ec565b9081526020016040518091039020600401546111f49190612601565b6111fe919061268a565b94508860646003604051611211906125ec565b90815260200160405180910390206005015461122d9190612601565b611237919061268a565b9350886064600360405161124a906125ec565b9081526020016040518091039020600601546112669190612601565b611270919061268a565b92508787878787876040518060400160405280600581526020017f546f74616c00000000000000000000000000000000000000000000000000000081525094939291909f509f509f509f509f509f509f5050505050505050505090919293949596565b600581815481106112e357600080fd5b9060005260206000200160009150905080546112fe90612099565b80601f016020809104026020016040519081016040528092919081815260200182805461132a90612099565b80156113775780601f1061134c57610100808354040283529160200191611377565b820191906000526020600020905b81548152906001019060200180831161135a57829003601f168201915b505050505081565b60008160405160200161139291906124f9565b60405160208183030381529060405280519060200120836040516020016113b991906124f9565b6040516020818303038152906040528051906020012014905092915050565b8015611413576004826040516113ee91906124f9565b9081526020016040518091039020600081548092919061140d906120f9565b91905055505b5050565b600060038460405161142991906124f9565b90815260200160405180910390209050811561145e57806000016000815480929190611454906120f9565b91905055506114c0565b60008160000154116114a5576040517f08c379a000000000000000000000000000000000000000000000000000000000815260040161149c90612707565b60405180910390fd5b8060000160008154809291906114ba90612727565b91905055505b848160020160008282546114d49190612750565b9250508190555082156114fc578060010160008154809291906114f6906120f9565b91905055505b600d8510156115245780600301600081548092919061151a906120f9565b9190505550611591565b601485101561154c57806004016000815480929190611542906120f9565b9190505550611590565b60328510156115745780600501600081548092919061156a906120f9565b919050555061158f565b806006016000815480929190611589906120f9565b91905055505b5b5b505050505050565b600080600090505b60058054905081101561163b57826040516020016115bf91906124f9565b60405160208183030381529060405280519060200120600582815481106115e9576115e8612571565b5b906000526020600020016040516020016116039190612807565b6040516020818303038152906040528051906020012003611628576001915050611641565b8080611633906120f9565b9150506115a1565b50600090505b919050565b6000808251905060008111611690576040517f08c379a00000000000000000000000000000000000000000000000000000000081526004016116879061286a565b60405180910390fd5b600060028261169f919061288a565b0361171c576002836002836116b4919061268a565b815181106116c5576116c4612571565b5b60200260200101518460016002856116dd919061268a565b6116e791906128bb565b815181106116f8576116f7612571565b5b602002602001015161170a9190612750565b611714919061268a565b915050611747565b8260028261172a919061268a565b8151811061173b5761173a612571565b5b60200260200101519150505b919050565b6000604051905090565b600080fd5b600080fd5b600080fd5b600080fd5b6000601f19601f8301169050919050565b7f4e487b7100000000000000000000000000000000000000000000000000000000600052604160045260246000fd5b6117b38261176a565b810181811067ffffffffffffffff821117156117d2576117d161177b565b5b80604052505050565b60006117e561174c565b90506117f182826117aa565b919050565b600067ffffffffffffffff8211156118115761181061177b565b5b61181a8261176a565b9050602081019050919050565b82818337600083830152505050565b6000611849611844846117f6565b6117db565b90508281526020810184848401111561186557611864611765565b5b611870848285611827565b509392505050565b600082601f83011261188d5761188c611760565b5b813561189d848260208601611836565b91505092915050565b6000602082840312156118bc576118bb611756565b5b600082013567ffffffffffffffff8111156118da576118d961175b565b5b6118e684828501611878565b91505092915050565b6000819050919050565b611902816118ef565b82525050565b600060208201905061191d60008301846118f9565b92915050565b61192c816118ef565b811461193757600080fd5b50565b60008135905061194981611923565b92915050565b60006020828403121561196557611964611756565b5b60006119738482850161193a565b91505092915050565b600073ffffffffffffffffffffffffffffffffffffffff82169050919050565b60006119a78261197c565b9050919050565b6119b78161199c565b81146119c257600080fd5b50565b6000813590506119d4816119ae565b92915050565b6000602082840312156119f0576119ef611756565b5b60006119fe848285016119c5565b91505092915050565b60008115159050919050565b611a1c81611a07565b82525050565b6000602082019050611a376000830184611a13565b92915050565b600081519050919050565b600082825260208201905092915050565b60005b83811015611a77578082015181840152602081019050611a5c565b60008484015250505050565b6000611a8e82611a3d565b611a988185611a48565b9350611aa8818560208601611a59565b611ab18161176a565b840191505092915050565b600061012082019050611ad2600083018c6118f9565b8181036020830152611ae4818b611a83565b9050611af3604083018a6118f9565b8181036060830152611b058189611a83565b90508181036080830152611b198188611a83565b905081810360a0830152611b2d8187611a83565b905081810360c0830152611b418186611a83565b9050611b5060e0830185611a13565b611b5e610100830184611a13565b9a9950505050505050505050565b611b7581611a07565b8114611b8057600080fd5b50565b600081359050611b9281611b6c565b92915050565b600080600080600080600060e0888a031215611bb757611bb6611756565b5b600088013567ffffffffffffffff811115611bd557611bd461175b565b5b611be18a828b01611878565b9750506020611bf28a828b0161193a565b965050604088013567ffffffffffffffff811115611c1357611c1261175b565b5b611c1f8a828b01611878565b955050606088013567ffffffffffffffff811115611c4057611c3f61175b565b5b611c4c8a828b01611878565b945050608088013567ffffffffffffffff811115611c6d57611c6c61175b565b5b611c798a828b01611878565b93505060a088013567ffffffffffffffff811115611c9a57611c9961175b565b5b611ca68a828b01611878565b92505060c0611cb78a828b01611b83565b91505092959891949750929550565b600060e082019050611cdb600083018a6118f9565b611ce860208301896118f9565b611cf560408301886118f9565b611d0260608301876118f9565b611d0f60808301866118f9565b611d1c60a08301856118f9565b611d2960c08301846118f9565b98975050505050505050565b60008060408385031215611d4c57611d4b611756565b5b6000611d5a8582860161193a565b9250506020611d6b85828601611b83565b9150509250929050565b60008060408385031215611d8c57611d8b611756565b5b6000611d9a8582860161193a565b925050602083013567ffffffffffffffff811115611dbb57611dba61175b565b5b611dc785828601611878565b9150509250929050565b600081519050919050565b600082825260208201905092915050565b6000819050602082019050919050565b600082825260208201905092915050565b6000611e1982611a3d565b611e238185611dfd565b9350611e33818560208601611a59565b611e3c8161176a565b840191505092915050565b6000611e538383611e0e565b905092915050565b6000602082019050919050565b6000611e7382611dd1565b611e7d8185611ddc565b935083602082028501611e8f85611ded565b8060005b85811015611ecb5784840389528151611eac8582611e47565b9450611eb783611e5b565b925060208a01995050600181019050611e93565b50829750879550505050505092915050565b600081519050919050565b600082825260208201905092915050565b6000819050602082019050919050565b611f12816118ef565b82525050565b6000611f248383611f09565b60208301905092915050565b6000602082019050919050565b6000611f4882611edd565b611f528185611ee8565b9350611f5d83611ef9565b8060005b83811015611f8e578151611f758882611f18565b9750611f8083611f30565b925050600181019050611f61565b5085935050505092915050565b60006040820190508181036000830152611fb58185611e68565b90508181036020830152611fc98184611f3d565b90509392505050565b600060e082019050611fe7600083018a6118f9565b8181036020830152611ff98189611a83565b905061200860408301886118f9565b61201560608301876118f9565b61202260808301866118f9565b61202f60a08301856118f9565b61203c60c08301846118f9565b98975050505050505050565b600060208201905081810360008301526120628184611a83565b905092915050565b7f4e487b7100000000000000000000000000000000000000000000000000000000600052602260045260246000fd5b600060028204905060018216806120b157607f821691505b6020821081036120c4576120c361206a565b5b50919050565b7f4e487b7100000000000000000000000000000000000000000000000000000000600052601160045260246000fd5b6000612104826118ef565b91507fffffffffffffffffffffffffffffffffffffffffffffffffffffffffffffffff8203612136576121356120ca565b5b600182019050919050565b60008190508160005260206000209050919050565b60006020601f8301049050919050565b600082821b905092915050565b6000600883026121a37fffffffffffffffffffffffffffffffffffffffffffffffffffffffffffffffff82612166565b6121ad8683612166565b95508019841693508086168417925050509392505050565b6000819050919050565b60006121ea6121e56121e0846118ef565b6121c5565b6118ef565b9050919050565b6000819050919050565b612204836121cf565b612218612210826121f1565b848454612173565b825550505050565b600090565b61222d612220565b6122388184846121fb565b505050565b5b8181101561225c57612251600082612225565b60018101905061223e565b5050565b601f8211156122a15761227281612141565b61227b84612156565b8101602085101561228a578190505b61229e61229685612156565b83018261223d565b50505b505050565b600082821c905092915050565b60006122c4600019846008026122a6565b1980831691505092915050565b60006122dd83836122b3565b9150826002028217905092915050565b6122f682611a3d565b67ffffffffffffffff81111561230f5761230e61177b565b5b6123198254612099565b612324828285612260565b600060209050601f8311600181146123575760008415612345578287015190505b61234f85826122d1565b8655506123b7565b601f19841661236586612141565b60005b8281101561238d57848901518255600182019150602085019450602081019050612368565b868310156123aa57848901516123a6601f8916826122b3565b8355505b6001600288020188555050505b505050505050565b600060e08201905081810360008301526123d9818a611a83565b90506123e860208301896118f9565b81810360408301526123fa8188611a83565b9050818103606083015261240e8187611a83565b905081810360808301526124228186611a83565b905081810360a08301526124368185611a83565b905061244560c0830184611a13565b98975050505050505050565b7f53656e646572206973206e6f7420616e2041646d696e00000000000000000000600082015250565b6000612487601683611a48565b915061249282612451565b602082019050919050565b600060208201905081810360008301526124b68161247a565b9050919050565b600081905092915050565b60006124d382611a3d565b6124dd81856124bd565b93506124ed818560208601611a59565b80840191505092915050565b600061250582846124c8565b915081905092915050565b7f74776f5f646f7365000000000000000000000000000000000000000000000000600082015250565b60006125466008836124bd565b915061255182612510565b600882019050919050565b600061256782612539565b9150819050919050565b7f4e487b7100000000000000000000000000000000000000000000000000000000600052603260045260246000fd5b7f546f74616c000000000000000000000000000000000000000000000000000000600082015250565b60006125d66005836124bd565b91506125e1826125a0565b600582019050919050565b60006125f7826125c9565b9150819050919050565b600061260c826118ef565b9150612617836118ef565b9250817fffffffffffffffffffffffffffffffffffffffffffffffffffffffffffffffff04831182151516156126505761264f6120ca565b5b828202905092915050565b7f4e487b7100000000000000000000000000000000000000000000000000000000600052601260045260246000fd5b6000612695826118ef565b91506126a0836118ef565b9250826126b0576126af61265b565b5b828204905092915050565b7f4e6f2070617469656e747320696e207468697320646973747269637400000000600082015250565b60006126f1601c83611a48565b91506126fc826126bb565b602082019050919050565b60006020820190508181036000830152612720816126e4565b9050919050565b6000612732826118ef565b915060008203612745576127446120ca565b5b600182039050919050565b600061275b826118ef565b9150612766836118ef565b925082820190508082111561277e5761277d6120ca565b5b92915050565b6000815461279181612099565b61279b81866124bd565b945060018216600081146127b657600181146127cb576127fe565b60ff19831686528115158202860193506127fe565b6127d485612141565b60005b838110156127f6578154818901526001820191506020810190506127d7565b838801955050505b50505092915050565b60006128138284612784565b915081905092915050565b7f456d707479206172726179000000000000000000000000000000000000000000600082015250565b6000612854600b83611a48565b915061285f8261281e565b602082019050919050565b6000602082019050818103600083015261288381612847565b9050919050565b6000612895826118ef565b91506128a0836118ef565b9250826128b0576128af61265b565b5b828206905092915050565b60006128c6826118ef565b91506128d1836118ef565b92508282039050818111156128e9576128e86120ca565b5b9291505056fea26469706673582212200b9f98ab43bcb431b2c13f48ace158fa13ce6db281040ef1cbfec3a534adbdb464736f6c63430008100033",
  "immutableReferences": {},
  "source": "// SPDX-License-Identifier: GPL-3.0\npragma solidity >=0.7.0 <0.9.0;\n\ncontract PatientManagement {\n    // Emit an event when a patient is added with the is_dead flag set to true\n    event PatientAddedWithDeath(uint indexed id, string name, string district, bool is_dead);\n    event votedEvent(uint indexed _candidateId);\n    event PatientAdded(\n        uint indexed id,\n        string name,\n        uint age,\n        string gender,\n        string vaccine_status,\n        string district,\n        string symptoms_details,\n        bool is_dead\n    );\n\n    // model a candidate\n    struct Patient{\n        uint id;\n        string name;\n        uint age;\n        string gender;\n        string vaccine_status;\n        string district;\n        string symptoms_details;\n        bool is_dead;\n        bool isDoubleDosed;\n    }\n\n    // Store accounts that have voted\n    mapping( address => bool ) public admins;\n\n    mapping( uint => Patient ) public patients;\n\n    // store candidates count\n    uint public patientsCount=0;\n    \n    // Structure to hold district-wise patient statistics\n    struct DistrictStats {\n        uint totalPatients;\n        uint totalDeaths;\n        uint totalAge;\n        uint childCount;\n        uint teenCount;\n        uint youthCount;\n        uint elderCount;\n    }\n\n    // Mapping to store district-wise statistics\n    mapping(string => DistrictStats) public districtStats;\n\n    // Function to update Covid trend statistics\n    function updateCovidTrend(uint _id, uint _age, string memory _district, bool _is_dead, bool isAddition) internal {\n        DistrictStats storage stats = districtStats[_district];\n        \n        // Increment or decrement totalPatients\n        if (isAddition) {\n            stats.totalPatients++;\n        } else {\n            require(stats.totalPatients > 0, \"No patients in this district\");\n            stats.totalPatients--;\n        }\n        \n        // Update totalAge\n        stats.totalAge += _age;\n\n        // Update death count\n        if (_is_dead) {\n            stats.totalDeaths++;\n        }\n\n        // Update age group counts\n        if (_age < 13) {\n            stats.childCount++;\n        } else if (_age < 20) {\n            stats.teenCount++;\n        } else if (_age < 50) {\n            stats.youthCount++;\n        } else {\n            stats.elderCount++;\n        }\n    }\n   \n    // Mapping to store death count for each district\n    mapping(string => uint) public districtDeathCounts;\n\n    // Function to update death count for a district\n    function updateDistrictDeathCount(string memory _district, bool _is_dead) internal {\n        if (_is_dead) {\n            districtDeathCounts[_district]++;\n        }\n    }\n\n    // Array to store all district names\n    string[] public districts;\n\n    // Check if a district exists\n    function districtExists(string memory _district) internal view returns (bool) {\n        for (uint i = 0; i < districts.length; i++) {\n            if (keccak256(abi.encodePacked(districts[i])) == keccak256(abi.encodePacked(_district))) {\n                return true;\n            }\n        }\n        return false;\n    }\n\n    // adding candidates\n    function addPatient(string memory _name, uint _age ,string memory _gender,string memory _vaccine_status,string memory _district,string memory _symptoms_details,bool _is_dead ) public {\n        patientsCount++;\n        bool isDoubleDosed = compareStrings(_vaccine_status, \"two_dose\"); // Check if vaccine status is \"Two Dose\"\n        patients[patientsCount] = Patient(patientsCount, _name,_age, _gender, _vaccine_status, _district, _symptoms_details, _is_dead, isDoubleDosed );\n        \n        // Update district death count if the patient is dead\n        if (_is_dead) {\n            updateDistrictDeathCount(_district, _is_dead);\n        }\n        \n        // Update Covid trend statistics\n        updateCovidTrend(patientsCount, _age, _district, _is_dead, true);\n\n    \n        // Add the district name if it's not already present in the districts array\n        if (!districtExists(_district)) {\n            districts.push(_district);\n        }\n        \n        emit PatientAdded(patientsCount, _name, _age, _gender, _vaccine_status, _district, _symptoms_details, _is_dead);\n    }\n\n   // Function to compare two strings\n    function compareStrings(string memory a, string memory b) internal pure returns (bool) {\n        return (keccak256(abi.encodePacked((a))) == keccak256(abi.encodePacked((b))));\n    }\n\n    // cast vote\n    function makeAdmin(uint _candidateId) public {\n        // require that the current voter haven't voted before\n        require(!admins[msg.sender]);\n        /// emit the event\n        emit votedEvent(_candidateId);\n\n        // record voters vote\n        admins[msg.sender] = true;\n    }\n\n    modifier senderIsAdmin {\n        require(admins[msg.sender] == true, \"Sender is not an Admin\");\n        _;\n    }\n\n    function updateVaccine(uint _id, string memory _vaccine_status) public senderIsAdmin {\n    patients[_id].vaccine_status = _vaccine_status;\n\n    // Check if the vaccine status is \"Two Dose\" and update the isDoubleDosed flag accordingly\n    if (keccak256(abi.encodePacked(_vaccine_status)) == keccak256(abi.encodePacked(\"two_dose\"))) {\n        patients[_id].isDoubleDosed = true;\n    } else {\n        patients[_id].isDoubleDosed = false;\n    }\n}\n\n\n    function getDistrictDeathCounts() public view returns (string[] memory, uint[] memory) {\n        uint length = districts.length;\n        uint[] memory deathCounts = new uint[](length);\n        string[] memory districtNames = new string[](length);\n        uint highestDeathCount = 0;\n        uint highestDeathCountDistrictsCount = 0;\n\n        // Iterate over all districts to populate the arrays\n        for (uint i = 0; i < length; i++) {\n            string memory districtName = districts[i];\n            uint deathCount = districtDeathCounts[districtName];\n            deathCounts[i] = deathCount;\n            districtNames[i] = districtName;\n\n            // Check if the death count is higher than the current highest death count\n            if (deathCount > highestDeathCount) {\n                highestDeathCount = deathCount;\n                highestDeathCountDistrictsCount = 1;\n            } else if (deathCount == highestDeathCount) {\n                highestDeathCountDistrictsCount++;\n            }\n        }\n\n        // Create a new array to store only the districts with the highest death count\n        string[] memory districtsWithHighestDeathCount = new string[](highestDeathCountDistrictsCount);\n        uint index = 0;\n        for (uint j = 0; j < length; j++) {\n            if (deathCounts[j] == highestDeathCount) {\n                districtsWithHighestDeathCount[index] = districtNames[j];\n                index++;\n            }\n        }\n\n        return (districtsWithHighestDeathCount, deathCounts);\n    }\n\n    function updateDeath(uint _id, bool _is_dead) public senderIsAdmin {\n        bool currentDeathStatus = patients[_id].is_dead;\n        \n        // Update patient death status\n        patients[_id].is_dead = _is_dead;\n        \n        // Update Covid trend statistics only if death status changes\n        string memory district = patients[_id].district;\n        if (currentDeathStatus != _is_dead) {\n            if (_is_dead) {\n                districtDeathCounts[district]++;\n            }\n            \n            updateCovidTrend(_id, patients[_id].age, patients[_id].district, _is_dead, !_is_dead);\n        }\n    }\n\n    // Function to get Covid trend statistics\n    function getCovidTrend() public view returns (uint, string memory, uint, uint, uint, uint, uint) {\n        uint totalPatients;\n        uint totalDeaths;\n        uint medianAge;\n        uint childPercent;\n        uint teenPercent;\n        uint youthPercent;\n        uint elderPercent;\n\n\n        // Calculate combined totalPatients and totalDeaths across all districts\n        for (uint i = 1; i <= patientsCount; i++) {\n            totalPatients++;\n            if (patients[i].is_dead) {\n                totalDeaths++;\n            }\n        }\n\n        // Calculate median age\n        uint[] memory ages = new uint[](totalPatients);\n        uint idx = 0;\n        for (uint i = 1; i <= patientsCount; i++) {\n            ages[idx] = patients[i].age;\n            idx++;\n        }\n        medianAge = calculateMedian(ages);\n\n        // Calculate percentage of age groups\n        childPercent = (districtStats[\"Total\"].childCount * 100) / totalPatients;\n        teenPercent = (districtStats[\"Total\"].teenCount * 100) / totalPatients;\n        youthPercent = (districtStats[\"Total\"].youthCount * 100) / totalPatients;\n        elderPercent = (districtStats[\"Total\"].elderCount * 100) / totalPatients;\n\n        return (totalDeaths, \"Total\", medianAge, childPercent, teenPercent, youthPercent, elderPercent);\n    }\n\n    // Function to calculate median\n    function calculateMedian(uint[] memory values) internal pure returns (uint) {\n        uint n = values.length;\n        require(n > 0, \"Empty array\");\n        if (n % 2 == 0) {\n            return (values[n / 2 - 1] + values[n / 2]) / 2;\n        } else {\n            return values[n / 2];\n        }\n    }\n\n}\n",
  "sourcePath": "/home/proma/446 project/446/contracts/PatientManagement.sol",
  "compiler": {
    "name": "solc",
    "version": "0.8.16+commit.07a7930e.Emscripten.clang"
  },
  "schemaVersion": "3.4.16",
  "updatedAt": "2024-04-13T21:08:13.931Z",
  "networkType": "ethereum",
  "devdoc": {
    "kind": "dev",
    "methods": {},
    "version": 1
  },
  "userdoc": {
    "kind": "user",
    "methods": {},
    "version": 1
  }
}